:020000040800F2
:10800000F8FF0320C1A10308E7F40208D5F4020831
:10801000E9F40208F9F4020809F50208000000007A
:1080200000000000000000000000000019F5020838
:108030001BF5020800000000450603087D06030842
:10804000A1A00308E1F50208EDF50208F5F5020824
:1080500099860308A1A0030875F502087BF50208BC
:1080600081F5020887F502088DF50208D929030871
:10807000E9290308F9290308092A0308192A03082A
:10808000292A0308392A0308A1A00308A1A003088C
:108090009D4F0308A34F0308A94F030893F5020857
:1080A00009F602080FF6020821F6020827F6020870
:1080B0002DF6020833F6020839F60208A1A00308DB
:1080C000A1A00308B9F60208BFF60208A1A00308A0
:1080D000A1A0030889F602088FF6020895F60208A7
:1080E000B7F50208E7F5020835F5020865F602085B
:1080F0006BF6020883F602087DF60208492A030897
:10810000A1A00308A1A0030841F60208A1A003084A
:108110009BF60208A1F6020859F602085FF602086B
:10812000592A0308692A0308792A0308892A0308B7
:10813000992A030800000000000000000000000071
:108140000000000000000000000000001DF5020813
:10815000A92A0308B92A0308C92A0308A7F60208AE
:10816000C5F60208CBF60208A1A00308A1A00308E7
:1081700055F5020829F50208000000000000000083
:10818000A1A00308A1A00308ADF60208B3F60208F7
:10819000A1A00308A1A0030800000000A1A00308FB
:1081A000000000000000000000000000A1A0030883
:1081B000A1A00308A1A00308000000000000000027
:1081C00000000000000000000000000000000000AF
:1081D000000000000000000000000000C190030843
:1081E000024B1A690260186100207047EC380020C9
:1081F000024B1A6912681A61704700BFEC38002000
:10820000C460056146618761C0F81C80C0F8209099
:10821000C0F824A0C0F828B0C0F82CD080ED0C8B9A
:1082200080ED0E9B80ED10ABC0F808E0FFF7D8BFE3
:10823000104A08B513690BB926F082FE1968586018
:1082400011611846C468056946698769D0F81C80C1
:10825000D0F82090D0F824A0D0F828B0D0F82CD0B6
:1082600090ED0C8B90ED0E9B90ED10ABD0F808E0EC
:1082700001207047EC38002010B50021044600F0C2
:108280007FFA18B914B120460DF048F910BD00214D
:1082900000F076BA10B50121044600F071FA18B961
:1082A00014B120460DF03AF910BDFFF7E5BF10B547
:1082B00001220C4600F0AAFB18B914B120460DF0BB
:1082C0002DF910BD00F0A2BB00F030BB2DE9F0434A
:1082D00000252A4C0326D4F81072002101314318DE
:1082E0009A0803F00303BA5C5B0042FA03F303F05D
:1082F0000303022BF2D00901D4F81C328A0803EBE5
:10830000001009B300EB820103681A0719D1D4F8F1
:108310001C229A4215D89A1AD4F820724FEA121CDD
:108320009F424FEA92120CF003030AD9D4F810E2EC
:108330005B001EF8028048FA03F707F00307012FDD
:1083400009D004308842DFD19DB1013D05F58A7323
:1083500034F81300BFE706FA03F33F2D05F58A79D9
:1083600043EA08030EF8023005D824F819C0013595
:10837000E7E7BDE8F083C4F82472E2E7EC380020B8
:1083800021F00F03002170B51C1A164E164DE400A3
:10839000C5F82032A6FB0464C5F81002640AA3EBFA
:1083A000841306192246C5F81442C5F81C32C5F8D4
:1083B000186221F0E5FBA2000021D5F8180207326F
:1083C000D20821F0DDFB00234FF480314FF0FF3263
:1083D000C5F8B432C5F8A812C5F8B022C5F8AC3259
:1083E00070BD00BFF32C23FAEC380020034AB2F82A
:1083F000A8320133A2F8A832704700BFEC38002041
:10840000034AB2F8A832013BA2F8A832704700BF75
:10841000EC380020034BB3F8A802003018BF01204D
:10842000704700BFEC380020F8B51C4D0022032730
:10843000B5F8A8322C1D05F5F876C5F8AC22013345
:10844000C5F82422A5F8A83254F8043F1A0718D119
:10845000D5F81C22934214D39A1AD5F82012100989
:108460008B424FEA921200F003030AD2D5F810C2F1
:108470005B001CF802E04EFA03F101F00301012950
:1084800002D0A642E0D1F8BD07FA03F343EA0E0397
:108490000CF80230FFF71AFFF3E700BFEC380020BA
:1084A00029B3F8B5041F174E032704EB810554F8D0
:1084B000043F1A0718D1D6F81C229A4214D89A1AE7
:1084C000D6F82012100999424FEA921200F00303E5
:1084D0000AD9D6F810C25B001CF802E04EFA03F18C
:1084E00001F00301012903D0A542E0D1F8BD704796
:1084F00007FA03F343EA0E030CF80230FFF7E6FE37
:10850000F2E700BFEC3800202DE9F04F524E83B067
:108510000025D6F81412D6F8243289006BB3C6F8B9
:108520002452F9B10024A208D6F8100204F0030383
:10853000825C5B0042FA03F303F00303032B05D0D4
:1085400001348C42EFD3D6F82432E7E720460134D9
:10855000FFF7BCFED6F814128900A142E3D8D6F882
:108560002432DBE7B6F8A8320022013BC6F8B42279
:10857000A6F8A83203B0BDE8F08F0029F2D09E46DD
:108580004FF003084FF0020A1D4606E0032B56D0B9
:10859000012B20D001358D42E4D2AF08D6F810C2AD
:1085A00005F003041CF807200CEB0700640042FAF6
:1085B00004F303F00303022BE8D1BEF1000FE9D06E
:1085C00008FA04F44FF0010E22EA04020270D6F811
:1085D00014128900DEE74FEAD50BD6F8181205F021
:1085E000070911F80BC059444CFA09FE1EF0010F9F
:1085F000E6D02801D6F81C22135810449BB16A46D5
:10860000B1210CF0A5F9009A3AB10DF0C9F9DDE9F4
:1086100000010DF09BF90DF0D9F9D6F8182202EB04
:108620000B0112F80BC0012303FA09F32CEA030C27
:1086300081F800C0D6F81032D819DA5DC0E70AFA1E
:1086400004F44FF0000E22EA04020CF80720D6F8DA
:10865000141289009EE700BFEC380020054B002172
:10866000B3F8A822C3F824120132A3F8A822FFF716
:108670004BBF00BFEC380020404A0023D2F8201244
:108680002DE9F04FD2F81C421E46D2F810829A46CD
:10869000D2F81422091B43601C4601604FEA820C89
:1086A00083609E46C36099460361194643611A463A
:1086B00083611F4698F800B07B004BFA03F303F088
:1086C0000303012B33D044D3022B02D101340131F7
:1086D0004460013294450CBF012500250DD093085C
:1086E00002F0030718F803B07B004BFA03F303F022
:1086F0000303012B01D9002DDED0012931D002293D
:1087000002D1476901374761514501D98A468161E4
:10871000012B10D07DB9930802F0030718F803B0BD
:108720007B004BFA03F303F00303012BCBD101349D
:1087300019464460CDE7B14502D94E46C0F80C90C9
:10874000944512D124014FEA0E13C0E90143BDE85C
:10875000F08F0EF1010E09F101091946C0F808E089
:10876000B7E7076901370761CEE793084FF00009C3
:1087700002F0030718F803B09EE700BFEC380020B2
:108780000F302DE9F04706095BD0674DB5F8A832E8
:10879000002B56D1B5F8AA3201F00104002B0CBF12
:1087A0004FF0010E4FF0000E50D1D5F8B412D5F8AD
:1087B00014728F4238D9D5F810C2481E0023604485
:1087C0001AE001339E4252D912F00C0F1ED1013330
:1087D0009E4240F2A08012F0300F1CD101339E4225
:1087E00040F29C8012F0C00F1AD101339E4240F239
:1087F00098800131B94217D210F8012F12F0030FFF
:10880000DFD012F00C0F4FF00003E0D012F0300F69
:108810004FF00003E2D012F0C00F4FF00003E4D09D
:1088200001310023B942E7D3BEF1000F09D12DF089
:10883000CFFCD5F8B412D5F814724FF0010E8F4268
:10884000B9D84FF0000A5046BDE8F087D5F8AC2201
:10885000D5F8B0329A42A8D32DF0BAFCD5F8B412AC
:10886000D5F814728F42ECD94FF0010EA3E78900BE
:10887000CA1A012B01F1010E02F1010703D14FEADF
:108880009E03C5F8B432012307F003004FEA9708AE
:10889000023298401CF80890914203FA00F343EA30
:1088A00009030CF8083012D34FF0020802F003035A
:1088B0009008D5F810C201325B001CF8009091427C
:1088C00008FA03F343EA09030CF80030EED24FEA4A
:1088D0000718D5F81C92D5F8AC32AEEB070209EBBD
:1088E000080A00211E4412015046C5F8AC6221F06E
:1088F00047F96CB10023D5F81812FA0807F00707FA
:1089000049F808300123885C03FA07F707438F54BE
:108910005046BDE8F08789000131A9E7890002319E
:10892000A6E789000331A3E7EC380020F0B41C4E21
:10893000B6F8A83293BB88B3D6F81C320121D6F81A
:108940001872C01A0409C50904F0070C83097A5D7E
:1089500001FA0CF122EA010204F003017A55A5089C
:10896000D6F8B4220327D6F81002934238BFC6F8CF
:10897000B432C25C4900013407FA01F304F0030188
:1089800022EA03024B004255A508D6F81002425DC8
:1089900042FA03F303F00303022BEBD0F0BC704761
:1089A000EC38002010F00F031AD1174AD2F81C122D
:1089B000814215D830B4D2F82042844221D9401ADD
:1089C000D2F810120409800904F003050A5C68005B
:1089D0000241184602F00302012A03D030BC70475E
:1089E00000207047013023189A0803F003038A5CC3
:1089F0005B0042FA03F303F00303022BF2D0000101
:108A0000ECE7184630BC7047EC3800208C46002854
:108A100000F086802DE9F84F894CB4F8A85200295F
:108A200051D0002D50D1D4F81C120CF10F06D4F8FF
:108A30001432A0EB010936094FEA830E4FEA1917E9
:108A4000791C8E4540F2F880D4F810A24FF001084E
:108A50004FEA910B01F003031AF80BB05B004BFADD
:108A600003F303F00303022B32D023B9013508EBE3
:108A70000503B3422ED346454ED02FD345448246FC
:108A8000B542C0F0848007EB08003744874210D914
:108A9000022100F003038508D4F8102201305B00A6
:108AA00012F805C0874201FA03F343EA0C03535559
:108AB000EFD1A6EB08020AEB08100021554612017F
:108AC00021F05EF801E07DB300252846BDE8F88F6F
:108AD00008F1010801318E45BAD1CCE73E444FF090
:108AE00003094744354605F003034FEA950ED4F8D1
:108AF000101201355B0011F80EC0AF4209FA03F302
:108B00002CEA030301F80E30EDD1B608D4F8B432E4
:108B10009E4238BFC4F8B46205462846BDE8F88FC7
:108B200001466046FFF72CBED4F81C120122D4F88F
:108B300018624FF0030C401A0509C10905F0070738
:108B40008009735CBA40AF0823EA0203735405F04E
:108B50000301D4F8B432D4F81062984238BFC4F894
:108B6000B402325C490001350CFA01F305F003014F
:108B700022EA03024B00F255AF08D4F81062F25D0E
:108B800042FA03F303F00303022BEBD09CE74FEA16
:108B9000D919D4F8183207F0070713F8091039412A
:108BA000002A91D001F001016046FFF7E9FD05467A
:108BB000002889D04FEA0812514620F09DFFB4F8F2
:108BC000A832002B81D1D4F81C020122D4F81872EB
:108BD0004FF0030EAAEB00000609C10906F0070CCE
:108BE00080097B5C02FA0CF24FEA960C23EA02033E
:108BF0007B5406F00301D4F8B432D4F810729842D2
:108C000038BFC4F8B4023A5C490001360EFA01F3E9
:108C100006F0030122EA03024B0007F80C204FEA9A
:108C2000960CD4F8107217F80C2042FA03F303F0F4
:108C30000303022BE8D048E74FF001081BE700BF11
:108C4000EC380020424B2DE9F04FD3F820120024DD
:108C5000D3F81C2285B0D3F810E2A046D3F8143222
:108C60008A1A27469EF80010A2464FEA830CA146B6
:108C70002546A3462046264602940392730041FAF5
:108C800003F303F00303012B32D04FD3022B02D1A5
:108C900009F101090135013060450CBF01220022B4
:108CA0000DD0830800F003061EF80310730041FA8C
:108CB00003F303F00303012B01D9002ADED0012DB9
:108CC0003AD0022D02D1029901310291AC4238BF53
:108CD0002C46012B10D07AB9830800F003061EF849
:108CE0000310730041FA03F303F00303012BCCD10B
:108CF00009F101091D46CEE75F4538BF5F46604573
:108D00001DD14FEA0A10039A4FEA09131149009046
:108D1000114800F041FF029B424610490E48CDE940
:108D2000004700F039FF05B0BDE8F08F0AF1010AF5
:108D30000BF1010B1D46AEE708F10108C6E78308F9
:108D40004FF0000B00F003061EF8031096E700BF7B
:108D5000EC380020C0470508DCA30508E4470508F7
:108D60002DE9F047534E5449D6F81C22534800F0E1
:108D700013FFD6F814325FEA830C00F087800024DA
:108D8000DFF87091DFF870814C4F19E0D6F810329F
:108D900013F80A3043FA05F505F00305022D71D0EA
:108DA000032D6DD0012D46D02E224549384600F0C6
:108DB000F3FED6F8143201344FEA830CA44565D98A
:108DC00004F00305A0064FEA940A4FEA4505DDD1F9
:108DD000A44529D9D6F8100210F80A302B4199077A
:108DE00022D1234604E0415C41FA02F292074BD1C2
:108DF000013303F0030263454FEA93014FEA420255
:108E0000F1D1ACEB04027F2A0ED992092D493846E4
:108E10002CF03F0400F0C0FED6F81432B4EB830F00
:108E200034D24FEA940A002509EA04124146384632
:108E300000F0B2FEAAE7D6F81C2223012249D2583C
:108E40008A4229D0214B9A422AD0214B9A4229D0DA
:108E5000204B9A4222D0204B9A421FD01F4B9A425D
:108E600022D01F4B9A421FD01E4B9A421ED01E4B3F
:108E70009A421DD01D4B9A4214BF68224D2294E79E
:108E80006D2292E73D2290E79C46BAE718490B48CD
:108E9000BDE8F04700F026BB542286E7532284E762
:108EA0004C2282E7442280E741227EE746227CE78B
:108EB00042227AE7EC38002078470508DCA3050851
:108EC000B84705089447050824DA05085CCB05086F
:108ED000C8BD0508D4D4050884D7050870B90508AD
:108EE00034B905089CC505082CC6050830CD050811
:108EF000BC470508F0FF0F00B0470508054B5B694C
:108F00005A68824204D8801A043053F8200070470F
:108F10001B68F5E7EC380020014441F20553884214
:108F200004D398B2002808BF0120704703EB431315
:108F300010F8012B5340F2E7034B044A5A61002218
:108F4000C3F8F421704700BFEC380020A055060894
:108F50002DE9F84F82468946FFF7DEFF134B834623
:108F60005C690CB920461CE004F11007E6683D4638
:108F700007EB8606B54201D32468F2E7A84658F805
:108F8000040B03885B450ED183784B450BD14A46D1
:108F90005146033020F008FE28B9ED1B606800EB55
:108FA000A500BDE8F88F4546E4E700BFEC38002097
:108FB0002DE9F04780460E46FFF7CAFF024600281B
:108FC00040F08180FF2E03D9404941480BF036FD27
:108FD000404C351DD4F8F401A0B1D4F8FC31D4F8DC
:108FE000F8112B448B420DD92944FFF76BF9074642
:108FF000F0B90246D4F8FC11D4F8F401FFF762F995
:10900000C4F8F471D4F8F431F3B9802D2F4638BF89
:1090100080273846FFF73BF9C4F8F40178B92846B1
:10902000FFF735F9C4F8F40140B928460CF076FA98
:10903000D4F8F8312B44C4F8F831E3E72F46002385
:10904000C4F8F871C4F8FC31D4F8FC913146D4F876
:10905000F4A140464D440AEB0907C4F8FC51FFF760
:109060005BFF0AF80900000ABE70324641463E44E2
:109070004FF000087870F81C20F03EFD86F8038061
:109080006369D3E90253AB4213D36D000A2D38BF95
:109090000A25281D8000FFF7FAF80028C5D062696C
:1090A00053680260D268C0F80C801344C0E90135EF
:1090B00060616369D9685A68481C0431013AD86014
:1090C000024443F821701046BDE8F0876B64050840
:1090D000F8C20508EC38002010B5044620F086FDE3
:1090E00001462046BDE81040FFF762BF08B5FFF714
:1090F00005FF008808BD08B5FFF700FF807808BDB0
:1091000008B5FFF7FBFE033008BD08B5FFF7F6FE14
:10911000837803300B6008BD2DE9F8431D4600231A
:1091200007468846036016460B6013602B60164B9B
:10913000DFF858905C690CB14C4505D12B6832685A
:1091400013442B60BDE8F8833B6801333B60E26861
:10915000D8F800301344C8F8003004F11003E26876
:1091600003EB8202934207D32046FFF71BFC2B68D8
:10917000246818442860DEE753F8041B88783168B7
:10918000043101443160EDE7EC380020A0550608B9
:109190002DE9F8430E4B0F4F5C69DFF83C80DFF898
:1091A0003C900CB1BC4201D1BDE8F88304F110053C
:1091B000E36805EB8306B54201D32468F1E755F86F
:1091C000042B41464846033200F0E6FCF3E700BFBB
:1091D000EC380020A055060864640508DCA30508E7
:1091E00030B50023202411F8012F0AB9027030BDD8
:1091F000120600F101051ED50BB1047028460B784C
:10920000124A03F07F0363B9013A12F8013F0546A1
:10921000013013F0800F0BD003F07F032B7001237C
:10922000E1E712F9015B002DFBDA013BDBB2EAE773
:1092300000F8013CE9E7012B04BF047028460B78D5
:10924000013000F8013C0223CDE700BFF7480508D4
:1092500038B54468054603680C449C4210D9037B2A
:10926000DB0703D5002107480BF0E8FB10348068CA
:1092700024F0070408342146FFF719F82C60A86091
:1092800038BD00BFF8C2050870B504460E46114649
:109290001546FFF7DDFF31462A46D4E90130184470
:1092A00020F056FC62682A44626070BD70B5466862
:1092B00004468E42354628BF0D460121FFF7C8FF00
:1092C000A368681C721B5919184420F041FC63689C
:1092D000A06801332844636070BD38B5044600259A
:1092E000002914BF0846012065602060FEF7C4FF16
:1092F000237BA06065F30003237338BD38B50546B2
:109300000C460131FFF7E9FF6C6038BD00230160B6
:10931000C0E90132037B43F001030373704700008F
:1093200038B514460546FFF7D8FF024B2560636049
:1093300038BD00BF89920008037BDB0710B50446E7
:1093400002D48068FEF7C0FF0023A36010BD38B5CB
:1093500005461020FEF790FF04462946FFF7BDFFA3
:10936000204638BD10B5044650B1037BDB0702D45C
:109370008068FEF7A9FF2046BDE81040FEF7A4BFB5
:1093800010BD000038B5037B04460D46DB0703D54E
:10939000002107480BF052FB016880682944FEF762
:1093A00086FF2368A0601D441844256038BD00BFB7
:1093B000F8C2050838B504460D46FFF749FFD4E961
:1093C00001301D441844656038BDD0E9002310B554
:1093D0009A42044602D10121FFF7D4FF0021D4E9CB
:1093E0000132D154A06810BD10B50C460121FFF721
:1093F000E1FF047010BD7F29F8B50C46CEB204D849
:109400000121FFF7D7FF0670F8BD06F03F06B1F562
:10941000006FC1F3871546F0800607D265F03F055F
:109420000221FFF7C7FF46700570EDE705F03F0525
:10943000B1F5803FC1F3073745F0800508D203211D
:10944000FFF7B8FF67F01F03457003708670DBE716
:109450000421A40CFFF7AEFF07F03F0364F00F04F4
:10946000857063F07F03C67004704370CCE738B535
:1094700005460C46084620F0B9FB21460246284620
:10948000BDE83840FFF700BF10B51446FFF70EFFE8
:10949000047010BD10B51446FFF708FF047010BD2E
:1094A00043688B4234BF00235B1A4360704738B572
:1094B0001546426804460B468A4203D929448A422B
:1094C00001D8436038BD8068D21A0144521B184449
:1094D00020F03EFB6268521B6260F3E708461146CB
:1094E00026F07EBF70B5054608460E4620F07EFB8E
:1094F000044620B102466B683146286898472046EA
:1095000070BD00002DE9F74F019191469DF8301094
:1095100006460D9A11F0DF0FA2EB09023DD030296B
:109520000CA9244F0EBF4FF010080F464FF0010852
:1095300013F0800435D0022492FBF4F4151B002CA8
:1095400036DDA246D045C34673683946A8BFD34628
:109550003068AAEB0B0A5A469847BAF1000FF1DCC3
:10956000B9F1000F05D04C4473684A460199306840
:109570009847002D0DDD2C44A845C1467368394637
:10958000A8BFA9463068A5EB09054A469847002DB3
:10959000F2DC204603B0BDE8F08F074F4FF0100813
:1095A000C6E713F0010501D11446C8E71546D7E711
:1095B0000024D5E700A40508EFA305082DE9F04332
:1095C000074689B00020119D9DF84880139E8DF8B4
:1095D0000F0002B3814219DA2D2249428DF80F2083
:1095E000109A08AC0DF1100EA2F10A0CB1FBF3F0C9
:1095F00003FB10120146092A8CBF6244303204F882
:10960000012D74450DD00028F0D10AE0A80726D519
:109610002B228DF80F200029E2D108AC302304F86A
:10962000013D15F040099DF80F301CD023B30122F5
:109630002B460DF10F013846013ECDE90082FFF7C0
:1096400061FF814608AA2B4621463846121BCDE908
:109650000086FFF757FF484409B0BDE8F0836A076A
:10966000D9D52022D5E7002BECD004AA9442E9D921
:1096700004F8013C013CE5E79946E3E72DE9F04FAA
:1096800091B082461C46C8079DF86C300F46914643
:109690001A9D0593DDE91C860BD4B90703D13A68FE
:1096A000804B9A4205D038460CF04CFF400040F009
:1096B000010715F0810306D1059A302A03D1B04580
:1096C000B8BFB0461E4638460DF1200B10F039F8F1
:1096D000002818DBAA0712D52B238DF820300DF1B6
:1096E0002103E1B2EC061DD5B9F1020F0DD13020F6
:1096F0001A4602F8020B481C5870134612E06B071A
:1097000001D52023E9E75B46EBE7B9F1080F3FD12C
:10971000A8054FF030021A7049BF01F10E02013363
:109720005A700233002215F0200F0CA81A70A3EB18
:109730000B0309904FF01000049314BF2C23134621
:10974000012E8DF81F20C8BF45F0400515F04004DC
:10975000CDE90A02CDE9021324D03B460AA909A8A3
:10976000CDE900920BAA0FF0BDFE037881462D2BA8
:1097700040F087800B9C012E00F101098DF81F300D
:1097800004F1FF340B9400F3898000273C4636E057
:10979000B9F1100FC6D130201A4602F8020B01F1C0
:1097A0001700A9E708AB0BAA0AA909A8CDE90093FD
:1097B0003B460FF097FE012E81461FDD0B9CB44205
:1097C000B8BF3446A04516DD15F00107A8EB040428
:1097D00001D02746002425F001054CB12023019437
:1097E00031495046009300231A46FFF78BFE04468A
:1097F0003023059303E000273C46ECE72746690643
:109800001DD59DF81F305BB1002301220DF11F0112
:10981000504608F1FF38CDE90032FFF773FE0444EB
:10982000049B63B10023012259465046CDE9003222
:10983000049AFFF767FE049B0444A8EB0308059B0A
:10984000012ED8BF46460B9A4946009350460196D2
:109850002B46FFF757FE04444FB1202301971249CE
:109860005046009300231A46FFF74CFE0444099823
:109870000CAB984201D0FEF727FD204611B0BDE8A1
:10988000F08F012E81DD0B9C9DF81F30B442B8BFD4
:10989000344603B10134049B1C4493E7B442B8BF7F
:1098A0003446F7E7F0C90508A97B06082DE9F0431F
:1098B00016468BB080469946B207129F3CD416F0EC
:1098C000040F0CBF0023202300930A46139B202182
:1098D00002A809F04BFFF30504460DD5431C1F2BCE
:1098E0000AD80AAA00211444252204F8202C0AAA26
:1098F0001C461A4402F8201C16F040051ED09DF8A4
:1099000008302F2B4FF000031AD8012202A940463D
:10991000013F013CCDE90032FFF7F4FD0DF10901F3
:109920000546334622464046CDE90097FFF7EAFD5B
:1099300028440BB0BDE8F0832B23C5E702A9F0E76C
:1099400002A91D46EDE700002DE9F04F824689B0DF
:10995000144600250E46334613F8012B8AB9B1424E
:1099600013D30B78002B00F00E81013120234FF030
:1099700000090A780E46481C8AB990464FF0FF321B
:109980004FE0252AEBD01E46E5E7771ADAF80430D7
:10999000DAF800003A463D4498473146E1E72D2A7F
:1099A00003D149F001090146E3E72B2A02D149F02E
:1099B0000209F8E7202A02D149F00409F3E7212A35
:1099C00002D149F00809EEE7302A22D149F04009D6
:1099D0001346E8E70A2000FB0828A8F130080E46E5
:1099E00011F8012BA2F130000928F3D92E2AC5D194
:1099F00072782A2A10D008460022064610F8011B69
:109A0000A1F13007092F0CD80A2606FB0212303AC2
:109A1000F3E74FF00008E2E722680236043422EA56
:109A2000E27231786C2908BF01363778002F00F0D8
:109A3000AA80642F00F0818028D8502F2DD00ED816
:109A4000A7F14501022940F28780DAF804300122AB
:109A50003146DAF8000098470135A3464AE0622F04
:109A60003BD04DD8582FF0D17A1C27F00F0704F1C6
:109A7000040BCDF8049002F006020F3FCDE9023846
:109A8000FFB2C2F110030097002260E0712F42D0B4
:109A90000DD8672F60D9702FD7D104F1040BCDF802
:109AA0000490CDE90238612300931023ECE7752F71
:109AB000DAD0782FD8D0732FC7D1511C04F1040B02
:109AC000246805D12046049320F090F8049B0246B8
:109AD0002146CDE900384B4608E0226804F1040B2A
:109AE000CDE900384B4642B1042229495046FFF7E0
:109AF00009FD0544711C5C462CE705222549F5E764
:109B0000226808A904F1040B01F8042D0122CDE913
:109B100000384B46EAE707A9206804F1040BCDE9B9
:109B20000432FFF7F2FA059A049B0146501CCDE976
:109B3000003808BF079A4B46D8E7CDE902386123C1
:109B400004F1040B0122CDF8049000930A2321684C
:109B50005046FFF733FDCCE7073424F00704D4E97F
:109B60000001CDE904324AF06DFB059A00EE100ABF
:109B7000049B3946504604F1080BCDE900824A4661
:109B8000FFF794FEB5E7284609B0BDE8F08F00BFA7
:109B9000E4A30508E9A305080EB403B503AA52F827
:109BA000041B0192FFF7D0FE02B05DF804EB03B096
:109BB000704703781A060AD503F07F034022134248
:109BC00007D110F8012F02F0C001802905D01846F6
:109BD000704723EA02035208F1E702F03F0242EA2B
:109BE0008313EEE7421C10460132037803F0C003F2
:109BF000802BF8D070470023814201D81846704767
:109C000011F8012D02F0C002802A18BF0133F3E7DA
:109C100001440346002099421A4600D87047127842
:109C2000013302F0C002802A18BF0130F3E70000C0
:109C30007F289DBF024B185CC0F340000020704796
:109C400011A405087F289DBF024B185CC0F3C0001B
:109C50000020704711A405087F289DBF024B185CA7
:109C6000C0F380000020704711A405087F289DBF25
:109C7000024B185CC0F380100020704711A4050847
:109C80007F2809D8064B1B5C13F00C0F06D1A0F1FE
:109C90005F035842584170470020704701207047C9
:109CA00011A405087F289DBF024B185CC0F300106B
:109CB0000020704711A405087F289DBF024B185C47
:109CC000C0F340100020704711A4050808B50246F3
:109CD000FFF7E8FF00B12032104608BD08B5024684
:109CE000FFF7EAFF00B1203A104608BD30380928D6
:109CF00084BF20F020000738704710B501440246A9
:109D0000E5240020914203D8B0FA80F0400917E022
:109D100012F8013B30B103F0C003802B11D10138A0
:109D2000C0B2EFE7BF2B09D9F72B09D8DB0803F046
:109D3000060344FA03F303F00300E3E71B06E1D54F
:109D400010BD0020FCE7023981420B4603D31A887C
:109D50000239002AF8D00233181A4010704770B543
:109D60001C09944216D2121B01EB440103F00F03AD
:109D700015460E46012D31F8024B18BF3468013DDF
:109D800024FA03F4A4B220F8024BF2D104B9013A48
:109D9000104670BD0022FBE7F0B5059E0024921B23
:109DA0002546A6420ED17600002384190E449A421D
:109DB00013D104EB420315B1023324F81250181AE0
:109DC0004010F0BD31F8147033F814C067443D44BE
:109DD00020F814502D0C0134E3E736F813100D442D
:109DE00024F813502D0C0133E1E7F0B4049E002554
:109DF000921B2C46AE420AD17600002385190E44F0
:109E00009A420FD105EB4201F0BCFFF79CBF31F83D
:109E100015703C4433F81570E41B20F815402414E9
:109E20000135E7E736F813100C4425F813402414E5
:109E30000133E5E72DE9F043079C551EDDF828E0E6
:109E4000023984464FF6FF78A4EB0209DDE9087673
:109E50006C1C0AD100EB42011FB10123023120F832
:109E60001230BDE8F043FFF76EBF31F8024F4444B3
:109E7000264409EB0504AC4205F1FF3597BF1C8869
:109E80004FF6FF7402334444744486EA040E360CE1
:109E900017FA8EF74FEA144E2CF8027B3F0CD7E7E7
:109EA000022938B538BF0221044680680D4618B132
:109EB0002368B1EB930F07D96900FEF7F8F923681F
:109EC000A06065F39F03236038BD38B505460C20BC
:109ED000FEF7D2F903782A78044662F300036FF3A1
:109EE0004103037028682368C0F39D0060F39F035B
:109EF000400023606B686360FEF7BEF9A0602A68CB
:109F0000A968C2F39D0252001FF0F6FD204638BD3D
:109F1000013910B54B1C01D1002010BD30F81130B3
:109F200032F811401B1B002B04DB01F1FF31F1D093
:109F30000120F2E74FF0FF30EFE710B5044638B1EB
:109F40008068FEF7C1F92046BDE81040FEF7BCB9B5
:109F500010BD38B505460C460221FFF7A1FF002CC5
:109F60002B78BBBF644243F001036FF300032B70F7
:109F7000A8BF2B7000236B6004B938BDD5E901324E
:109F8000581C686022F81340240CF5E70023C0E950
:109F900000338360704728B103789B0702D4806840
:109FA000FEF792B9704738B505460C464968FFF789
:109FB00077FF22782B78A86862F300032B70636820
:109FC000A1686B606268BDE8384052001FF094BD24
:109FD000034609B959607047FFF7BBBF08B5FFF7E3
:109FE000D5FFBDE80840FFF7F3BF30B4057805F0B2
:109FF000FE0545F002050570056862F39F05002225
:10A000000560C0E9012130BC1946FFF7E1BFF8B592
:10A0100004469DF8185004211F461646FFF740FFDE
:10A0200023787DB1002E77F100020BDA764243F0FF
:10A03000010367EB470723700021616056EA0703BD
:10A0400004D1F8BD6FF300032370F5E7D4E90110E4
:10A050004D1C656020F81160310C380C41EA074155
:10A0600007460E46EAE72DE9F04110EE106A037844
:10A070000746F20F62F300030370C6F30F4313F4B5
:10A08000FF4303D100237B60BDE8F081B3F5FF4FB0
:10A09000F8D0C6F3C754A4F17F05002DF2DB04D13C
:10A0A0000121BDE8F041FFF754BF162DC6F3160697
:10A0B000A4F16F084FF01003D4BFC5F11705963C0B
:10A0C00046F40006C8BF093598FBF3F8DCBFEE4044
:10A0D00000254146CABF05F00F052C4694FBF3F45A
:10A0E000FFF7DEFEC7F8048024B162000021B868E3
:10A0F0001FF046FD45B106FA05F2BB68C5F1100533
:10A1000023F814200134EE4064004FEA4808444527
:10A11000BAD0BB681E53360C0234F8E72DE9F84379
:10A120008F18C2F35B02044698460D46511C089EE8
:10A13000FFF7B6FE2278B8F1000F0CD042F0010212
:10A14000002328461FFA86FC22706360B84205D3BC
:10A15000401BBDE8F88368F30002F1E7027800F1E4
:10A16000010EA2F13003092B05D9A2F14103192BED
:10A1700015D8A2F13703B342EAD2D4E901018046EF
:10A180008946B8F1000F11D101EB400213B1023240
:10A1900021F81030521A704652106260D6E7A2F1D0
:10A1A0006103192BD4D8A2F15703E4E7B9F80020D2
:10A1B00008F1FF3802FB0C3329F8023B1B0CE0E7E7
:10A1C000F8B5044615461E46C1B1531E4FF0FF3781
:10A1D0001E44E90020460F310909FFF761FE23788C
:10A1E00000216FF30003616023704DB9D4E90110C1
:10A1F00000EB4101FFF7A7FD6060F8BD0127E8E72C
:10A2000000230F290ADC3278013D3E4402FA01F2B4
:10A2100001F1080143EA02039BB2F2D162681039EE
:10A22000501C6060A06820F81230DEE70A464168E2
:10A2300038B5044609B9506890B11378257803F011
:10A24000010305F00100181A0AD15368994208D396
:10A250000AD89268A068FFF75BFEEB0748BF404250
:10A2600038BD4FF0FF30F8E70120F6E7884210B51F
:10A27000044601D0FFF797FE23786FF300032370A5
:10A2800010BD884210B5044601D0FFF78CFE23783C
:10A29000C3F30002C2F1010262F30003237010BD98
:10A2A00088421FB5044601D0FFF77DFE626862B99F
:10A2B00001212046FFF7F4FD0123A26813806360AB
:10A2C000237843F00103237010E02378D9070FD5DA
:10A2D0006FF30003A168237001230846ADF80E3028
:10A2E00000930DF10E03FFF780FD606004B010BD18
:10A2F000511C2046FFF7D4FD0123D4E90121ADF81C
:10A300000E30009308460DF10E03FFF745FD606027
:10A31000D6E72DE9F0470E4649680546174601B1D4
:10A320002AB931462846BDE8F047FFF73CBE02F1A6
:10A330000F0424092144FFF7B3FD17F00F026FF05B
:10A34000004E6FF0010CAB6808BF1022D6E9011077
:10A35000C2F1100267180CFB01FC07EB0E088E44DB
:10A360004FEA48080CEB4E0EC4448644002003EB31
:10A370000C09F1B9D04004F1004208F1020823F8B9
:10A380000C006FF00103013A03FB04935200023307
:10A3900018461FF0F5FB0346434417B133F8022D6E
:10A3A00092B12B786F60327862F300032B70BDE8B6
:10A3B000F0873EF811A04AEA000020FA02FA0004F1
:10A3C00029F811A00139D4E7013FE6E7F0B50E46C0
:10A3D000496885B00546144601B12AB93146284678
:10A3E000FFF7E1FD05B0F0BDFFF75AFD2346A86871
:10A3F000D6E90121FFF7B3FC2B786860024631787B
:10A4000061F300032B70DB07ECD50023210977688B
:10A41000ADF80E309F4201D08B4212D18F42E1D96C
:10A42000B36804F00F0433F81110012303FA04F4A5
:10A43000013C214218BFADF80E30BDF80E304BB9CB
:10A44000D0E7B06830F8130078B101238F42ADF83F
:10A450000E30E5D8A96801234AB1009308460DF1F2
:10A460000E03FFF799FC6860BCE70133D2E70B806D
:10A470006B60B7E773B553680C46496806461546E6
:10A48000994206D308D89268A068FFF741FD0028DA
:10A4900002DA23462C461D4623782A786168534009
:10A4A000DB0713D401313046FFF7FAFC6B68B06864
:10A4B0000093AB68D4E90121FFF76EFC337870603C
:10A4C000227862F30003337002B070BD3046FFF7AC
:10A4D000E7FC6B68B0680093AB68D4E90121FFF733
:10A4E00084FCEBE7F7B553680C4649680646154609
:10A4F000994206D328D89268A068FFF709FD002882
:10A5000022DA234601272C461D4623782A786168E3
:10A510005340DB071AD501313046FFF7C1FC6B68A9
:10A52000B0680093AB68D4E90121FFF735FC706097
:10A530002278337802F001020FB1C2F1010262F316
:10A540000003337003B0F0BD0027DEE73046FFF7AD
:10A55000A7FC6B68B0680093AB68D4E90121FFF7F2
:10A5600044FCE4E72DE9F04F16464A680D4685B0F5
:10A57000736804469A4222BF33460E461D4633781E
:10A580007168DA0721D42B7813F001071DD1FFF78A
:10A5900087FCA068B6683B46D5E9011C99420BD1FF
:10A5A00000EB4101FFF7CFFB237860606FF30003FE
:10A5B000237005B0BDE8F08F36F813203CF8135037
:10A5C0002A4020F813200133E8E701312046FFF745
:10A5D00067FC32782978D6F804C082EA010302F0D9
:10A5E000010201F00101A068DB43D5F80880C1F148
:10A5F000000E824603F001031FFA8EFE5F420093B5
:10A60000B368BFB2A3F102096B6802975742A3EB8C
:10A610000C03BFB2039301970CF1FF377B1C16D1DB
:10A62000009B00EB4C011BB10123023120F81C30D0
:10A63000FFF789FB606033782A78C3F30003C2F325
:10A6400000021340227863F300022270B1E739F868
:10A6500002BF019B83EA0B0B039B5A4403EB070BDE
:10A66000029BBB4507F1FF3797BFB8F800B0F34630
:10A6700008F102088EEA0B0B594402EA010B090C9F
:10A68000120C8BEA030B009B13FA8BF32AF8023BA4
:10A690001B0C0093C2E72DE9F84F15464A680E4699
:10A6A00004466B689A4222BF2B460D461E462B7805
:10A6B0006968DA072ED4327812F001082AD1FFF740
:10A6C000EFFBA9686D684246A768D6E9013CED1A20
:10A6D000934210D15B00002219443B44954213D1B0
:10A6E00003EB4503DB1B5B10636023786FF3000310
:10A6F0002370BDE8F88F31F812003CF81260304347
:10A7000027F812000132E3E731F8120023F81200B3
:10A710000132E3E701312046FFF7C2FB2F78696879
:10A720004FF0010907F00107A068AD684A1EC7F1A4
:10A73000000E8246023D1FFA8EFED6E901383678B9
:10A74000A3EB010B06F00106C6F1000C1FFA8CFC0E
:10A75000531C08D100EB4101FFF7F5FA2378606044
:10A7600043F00103C4E735F8023F8EEA03031F44B8
:10A770000BEB0203934202F1FF3297BFB8F80030AF
:10A78000634608F102088CEA03031E4447EA060305
:10A79000360C3F0CDB4319FA83F32AF8023B4FEAED
:10A7A0001349D5E7F0B514464A680E4685B063688C
:10A7B00005469A4222BF23460C461E46277861680A
:10A7C00033785F4017F001073AD1FFF769FB237830
:10A7D00013F0010328D1A2686468A868D6E90117BC
:10A7E000641A994210D1490000230A440144A3424B
:10A7F00014D101EB4301FFF7A6FA2B7868606FF3E1
:10A8000000032B7005B0F0BD32F8136037F813C0A9
:10A8100086EA0C0620F813600133E2E732F8136091
:10A8200021F813600133E2E7CDE9027701977368FD
:10A83000A8680093B368D4E90121FFF7FBFADCE7CD
:10A840000131FFF72DFB3378A868DB4303F00103E8
:10A8500003932378DB4303F0010302930123019365
:10A8600073680093B368D4E90121FFF7E3FA2B780A
:10A87000686043F00103C4E74B682DE9F04F0446DC
:10A8800085B00E4615460BB1536823B900236360AB
:10A8900005B0BDE8F08F81422FD1FFF716FBA5422E
:10A8A0000646074600D105466B6820467168194484
:10A8B000FFF7F6FA22680021A068C2F39D02520059
:10A8C0001FF05EF9B368D6F804C0002002936FF061
:10A8D0000103D4F808A003FB0CF30AEB4C01023B84
:10A8E000D5E90128039392B3039BDDF808B003EB8D
:10A8F000010ECDF804C0002318E0824204D1FFF716
:10A90000E4FA05460746CFE70027CDE73EF8029F69
:10A9100099443BF8023B1846B8F8003003FB00931B
:10A920000198AEF8003001381B0C01900198002806
:10A93000ECD1084601F1020E0BB170460B80A0EB82
:10A940000A00013A08F1020871464010CBE7606046
:10A950003846337829784B4013F0010F23780CBF29
:10A9600062F3000343F00103237005B0BDE8F04F2C
:10A97000FFF7E3BA4B6870B50646144613B1137877
:10A98000DA0702D50023736070BD636823B9012123
:10A99000BDE87040FFF7DDBA0846FFF796FA0546B6
:10A9A0002046FFF792FA012104463046FFF7D1FA1C
:10A9B000636883B1A3681B88DB0704D52A46314648
:10A9C0003046FFF759FF0123D4E901210846FFF77C
:10A9D000C6F9606038B92846FFF7AFFA2046BDE8EF
:10A9E0007040FFF7AABA2A4629462846FFF744FFD7
:10A9F000DEE72DE9F04F0C4651688FB091460131EA
:10AA000005460193FFF74CFAD9F804200021A86805
:10AA1000013252001FF0B4F8002320466B60D9F8D1
:10AA200004100131FFF73CFA49462046FFF7BBFA14
:10AA3000019B6768D4F808B0D3E901360093AB688E
:10AA40000293009BBB422CD82DD332463946584640
:10AA5000FFF75EFA002823D10123029A6060138079
:10AA60006B60019A99F8003012785340DB0714D5D7
:10AA70002B7843F001032B70636873B14FF0FF3103
:10AA80000BA8FFF7ABFA0BAA29462846FFF7F2FC02
:10AA9000019A21462046FFF7EDFC0FB0BDE8F08F8C
:10AAA00001DA0023DCE7009B03F1004000230138BA
:10AAB0004FEA400A36F8102012F4004F03F101016A
:10AAC00055D07A004FF0000E9BB2791C02F10208BB
:10AAD0002BF817E00492DC46C3F11002D844774605
:10AAE00061600392C44546D336F8100000FA03F2C1
:10AAF0000392009A012A09D906EB0A00C3F1100754
:10AB000030F8020CF840039F07430397009A891A14
:10AB1000029A696001F10041013902EB4102B11E64
:10AB200006920AF1020208910992049A5A44D4F852
:10AB300004A000990592514529D30AF1004A00204A
:10AB4000C3F110060AF1FF3A0BEB4A0AD34540F273
:10AB500082806FF000416B6833B15A18029830F868
:10AB60001220002A00F081806FF0004182E0520044
:10AB70000B4692B2A0E7BCF800E00EFA03F21743CE
:10AB8000039A2CF8027B2EFA02F7BFB2AAE71188CB
:10AB900032F8026C46EA01460399B6FBF1F60999D0
:10ABA000511A07910899079F049100218E46BA42D5
:10ABB0000FD80598023A0088091A049104990029CF
:10ABC00044D1069921F8026906910AF1FF316160CA
:10ABD000ADE70498B7F8008030F802CF04900CFA83
:10ABE00003F040EA1E4E1FFA8EF07043404503D238
:10ABF000A8EB000C8C450ED80144A1EB0808C8F165
:10AC0000000139801FFA88F1003118BF012101EBE2
:10AC100018410237CBE7ACEB010139800021F8E79E
:10AC200038F802CF0CFA03FC4CEA1E4EB7F800C00D
:10AC300010FA8EF0604427F8020B000C0599B94217
:10AC4000EED80499013E091A0491B7E70020DDE926
:10AC500007788646F2E7BAF8002042FA03F1B240DC
:10AC6000014390B22AF8021970E7013B6B6072E76A
:10AC7000013B63606368002B3FF4F3AE5A183BF866
:10AC80001220002AF4D0ECE6F0B51F464B6885B0E0
:10AC900006460C4615464BB11378DA0706D47B6896
:10ACA000012B07D1BB681B88012B03D100237360E4
:10ACB00005B0F0BD01213046FFF74BF96B68002B62
:10ACC000F6D02046FFF701F904462846FFF7FDF8C5
:10ACD000054601A8FFF75AF96B68B3B1AB681B884A
:10ACE000DB070AD5224631463046FFF7C5FD3B4615
:10ACF0003246314601A8FFF77CFE0123D5E9012148
:10AD00000846FFF72CF8686048B901A8FFF743F937
:10AD10002046FFF712F92846FFF70FF9C8E7224649
:10AD200021462046FFF7A8FD3B462246214601A8C2
:10AD3000FFF75FFED0E7D0E90121002301EB4202DB
:10AD400010B5914205D30278D20748BF5B4218463E
:10AD500010BD32F8024D44EA0343F2E730B5D0E9C2
:10AD60000124002304EB4202944206D3027801201E
:10AD7000D20748BF5B420B6030BDB3F5004F04D231
:10AD800032F8025D45EA0343EEE70020F4E72DE9DF
:10AD9000F043884661B19D1800264FF001091A441E
:10ADA0003746D0E90114A4F1020C19B9BDE8F083CB
:10ADB0001D46F1E73CF8024F103744EA0646072FDC
:10ADC00001DC0139F1E790F800E0B4B21EF0010FA8
:10ADD0001FBFE44359FA84F4A4B24FEA1429E4B241
:10ADE000B8F1000F09D005F1FF3E05F8014C73459D
:10ADF000DCD0083F360A7546E1E705F1010E2C70FC
:10AE00009645F5E7D0E901329FED0C0A02EB4303CA
:10AE10009FED0B7A9A4205D30378DB0748BFB1EE6A
:10AE2000400A704733F8021D07EE901AF8EEE77AF1
:10AE3000E0EE077AB0EE670AECE700BF0000000022
:10AE4000000080472DE9F84F446880468946164641
:10AE50009B469DF828A00B9D9CB982B1561E2B469F
:10AE600016F8012F18463AB930230370002300F872
:10AE7000013F401BBDE8F88F03F8012BF0E728469F
:10AE8000F2E76400ABF13A0B2046FDF7F5F907460F
:10AE90002246D8F808101EF02FFE28462A4607EB57
:10AEA000040CACF1020300219F421C4632D9303120
:10AEB000541C3B46392988BF594411709C4519469A
:10AEC00032D8BAF1000F08D00123211A032902BF9A
:10AED000941C82F801A02046D3B13846FDF7F4F95E
:10AEE0003EB130461EF082FE23463044B0421C463E
:10AEF00023D898F800302A46DB0742BF2D23237061
:10AF00000134631E9A421DD30023601B2370B1E7F6
:10AF10002246C6E7248844EA0141B1FBF9F423F84C
:10AF2000024909FB1411BFE7098802330029C5D083
:10AF3000BAF1000FECD00023C7E710F8012D03F899
:10AF4000012BD3E71178187802F8010B03F80119E7
:10AF5000D8E7D0E9023293423DBF5A1C826018788C
:10AF60004FF0FF307047036810B5044613B14068D6
:10AF7000FDF7AAF92046BDE81040FDF7A5B900008D
:10AF8000F8B50C461F46164605461020FDF774F925
:10AF9000054B8460C0E900743444C4606B60034BAB
:10AFA0002860AB60F8BD00BF53AF000867AF000872
:10AFB0000369272B1DD0222B1BD0752B03D023F028
:10AFC0001002622A10D14269272A12D0222A10D0F8
:10AFD000722B09D1622A0ED18069272809D0A0F1ED
:10AFE0002203584258417047622B04D14369722BA7
:10AFF000F1E7012070470020704702690A2A10B566
:10B00000044622D1C3690133C3610123236263690A
:10B010002361A3696361D4E9010398476369A0616F
:10B020000D2B07D10A239842636103D1D4E90103B0
:10B030009847A061A369013306D163695A1C03D004
:10B040000A2B1CBF0A23A36110BD036A092A04BF8F
:10B05000073323F007030133D8E770B504460E46E3
:10B0600000252069431C01D1284670BD0A2808D15B
:10B0700016B1A36A002BF7D020460125FFF7BDFFCC
:10B08000EFE7FEF7D5FD18B12046FFF7B6FFE8E77A
:10B090002369232B08D12046FFF7AFFF23695A1CF1
:10B0A000DFD00A2BF7D1DCE75C2BDDD163690A2BFB
:10B0B000DAD12046FFF7A1FFE6E700002DE9F74FC0
:10B0C000002104468164FFF7C8FFE369256AA36392
:10B0D000636AE563002B04DA062284F8402001331A
:10B0E00004E007D00522013B84F84020636203B0EE
:10B0F000BDE8F08F90B3A36A83BB0423013DD4E97C
:10B100000C2084F840306FF00043D11830F8111053
:10B110008D42ECD017D9E16A8A4207D30831490041
:10B12000FDF7C5F8E36A60630833E362D4E90C32E3
:10B13000591C216322F81350636AD0E7013A226355
:10B14000626A013A6262226BD11830F811108D42A6
:10B15000F4D3CCD0022384F84030C8E72169481CDE
:10B1600001D10023F7E72046FFF722FF81460028A0
:10B1700000F03C81002384F840302369752B5CD0BB
:10B18000622B4FD16369722B4FF00B030BBF02256B
:10B1900001254F46002794F84020002A55D184F815
:10B1A00040303DB12046FFF728FF022D02D1204656
:10B1B000FFF723FF23692046222B0CBF4FF0220804
:10B1C0004FF02708FFF719FF2369434540D1636912
:10B1D00098453DD120460326FFF70FFF2046FFF795
:10B1E0000CFF4FF0000A04F14405D4F810B0BBF195
:10B1F000FF3F00F0F580012E03D1BBF10A0F00F0F4
:10B20000EF80B24526D3514604F14400FEF748F9D9
:10B2100001212046FFF721FF2046FFF7C9FE002845
:10B22000ABD164E7722B0CD163694F46622B0BBF25
:10B23000022501250B230A23ADE701250A23002758
:10B24000A9E700250A232F46A5E79A42A9D04EE791
:10B250000126C6E7D84509D1414628460AF1010A28
:10B26000FEF7C9F82046FFF7C8FEBEE7BBF15C0F4A
:10B2700040F0B0802046FFF7C0FED4F810A02FB1F8
:10B280005C212846FEF7B7F8D3467EE0BAF1620F9C
:10B2900050D028D8BAF14E0F00F0828010D8BAF101
:10B2A000220F1ED0BAF1270F1BD0BAF10A0F3ED0E1
:10B2B000AAF1300BBBF1070FE2D84FF0030A79E097
:10B2C000BAF15C0F0DD0BAF1610F7BD0BAF1550F16
:10B2D000EED194F840200B2A38D15C212846FEF7A5
:10B2E0008AF8D3461BE0BAF1740F26D00BD8BAF116
:10B2F0006E0F25D0BAF1720F0FD0BAF1660FD7D109
:10B300004FF00C0B0BE0BAF1760F1CD0E1D3BAF181
:10B31000780FCDD14FF0020A1FE04FF00D0B94F8DB
:10B3200040300A2B51D159462846FEF764F84FF0B9
:10B33000000A97E74FF0080BF1E74FF0090BEEE733
:10B340004FF00A0BEBE74FF00B0BE8E7BAF1750F84
:10B3500014BF4FF0080A4FF0040A4FF0000B11E041
:10B360002046FFF74AFE226910460192FEF77EFC56
:10B37000002800F04B81019A4FEA0B1B1046FEF7A4
:10B38000B5FC83441AF1FF3AEAD2BBF1FF3FCED0BD
:10B39000A14B9B45C3D94FF0010384F84030C6E769
:10B3A0009E480AF0C1FA2046FFF727FE2269303A8C
:10B3B00002EBCB0B6269303A072AE6D8BAF1010AF0
:10B3C000F1D1E2E74FF0070BA9E7BBF1FF0FE2D89D
:10B3D0000B2BE0D15FFA8BF12846FEF705F8A6E7C4
:10B3E000B2453CBF032284F840200CE70846FEF734
:10B3F00029FC054620691DB95F2801D07F283ED968
:10B40000072304F14405C1B284F840302846FDF713
:10B41000EBFF2046FFF7F1FD2069421C1BD12846B7
:10B420007F4FFDF7D2FF0025064657F8251030461E
:10B430001EF0E6FB00281CD10D35EDB2102D84F86E
:10B4400040507FF454AE774BD3F80032002B14BF3A
:10B450000D230F237FE6FEF7F5FB40B920695F2837
:10B4600005D07F2803D8FEF7F7FB0028D7D0217C32
:10B47000CCE7FFF63CAE0135242DD6D137E6FEF7FA
:10B48000EBFB68B321692E2935D1092384F84030BC
:10B4900004F1440609273046FDF7ADFF2046FFF7CB
:10B4A000ACFD2069431C3FF422AE002D35D120F0C5
:10B4B0002003452B31D16521304684F84070FDF7DB
:10B4C0009AFF2046FFF799FD21692B2901D02D29EC
:10B4D000E7D13046FDF78FFF2046FFF78EFDE0E70E
:10B4E00023692E2B04D16069FEF7B6FB0028C9D171
:10B4F00000254D4F31E00823302984F84030C7D172
:10B50000656945F02005A5F16203162B97BF474DED
:10B510000025DD4005F00105BAE7FEF793FB28B1F1
:10B5200021692E290DD184F84070D2E72069FEF7F9
:10B5300093FB0028F4D123692E2BF1D05F2BCBD0C5
:10B54000D5E521F020034A2BC3D1ECE7652E01D0CD
:10B55000632E00D10137013501373E7816B12369DA
:10B56000B342F3D12046FFF748FD0EB90123F2E5BF
:10B57000212E07D123693D2BF8D12046FFF73DFD51
:10B580003823E8E52E2E0FD123692E2B02D16369D3
:10B590002E2B01D05B23DEE52046FFF72EFD204653
:10B5A000FFF72BFD0C23D6E56FF0010303FB0577B6
:10B5B0002B4607EB45025678632E01D0652E0BD142
:10B5C0000135216917F81520914213D12046FFF764
:10B5D00014FD2B46652EECD1154AD35C03F0FB021B
:10B5E00084F84030532A01D0552B05D1A36A01338A
:10B5F000A3627CE5632EEEE703F0FD02542A02D03D
:10B60000582B7FF474ADA36A013BF1E74FF00103BF
:10B61000834684F8403082E6FFFF1000D6A4050878
:10B6200088A50508EC38002091A4050801204000F9
:10B630005BA505087FB501AD0646542085E80E00E0
:10B64000FCF71AFE0446034695E8070043F8046B2E
:10B65000002583E8070001236FF001021420C4E9EC
:10B6600007320A22C4E90955C4E90B23FCF704FE9A
:10B670002021606304F14400FDF72FFE636B204638
:10B680001D802561C4E90555FFF7B7FC2046FFF78B
:10B69000B4FC2046FFF7B1FC2046FFF70FFDE36B3B
:10B6A0002046012B1CBF052384F8403004B070BD38
:10B6B00030B585B0054601AC2046FFF761FC284651
:10B6C00094E80E00FFF7B6FF05B030BD30B585B089
:10B6D0000546014601AC20461CF0F4FF2846FDF764
:10B6E000FBFC94E80E00FFF7A5FF05B030BD10B5D8
:10B6F000044670B1C3684068984704F14400FDF700
:10B700001BFE606BFCF7E0FD2046BDE81040FCF737
:10B71000DBBD10BDD0E90432013B036152F82300C8
:10B720007047C1F17F51036901F57F1101F57F5128
:10B730003F311944436953F821007047F8B5446A12
:10B7400006460D46B4B1D4E900030B44834222D926
:10B750000831002201442046FCF7B4FD0246B8B986
:10B76000616820460831FCF7ADFD63682360336AE9
:10B7700063603462802D2F4638BF802707F10800B0
:10B78000FCF77AFD0023076004464360706202E024
:10B7900023682B44236060680834054444F8045C43
:10B7A0002044F8BD38B50D460446D0E903138B425A
:10B7B00008D3103140698900FCF779FDE3686061C6
:10B7C0001033E360D4E90432591C216142F823505C
:10B7D00038BDF8B50D461F4604461646D0E900139D
:10B7E0008B4208D310318068C900FCF760FD2168E6
:10B7F000A06010312160D4E901104B1C636000EBA4
:10B80000C10350F8312065F3170240F83120DE7093
:10B810005F60F8BD10B48469CAB20023A16B5DF803
:10B82000044BFFF7D6BF0000F7B586690F46054603
:10B8300096F8401007291FD1D6E91210FDF7B8FB82
:10B84000902F04460ED1C100002205F1280041F0DE
:10B8500002010AF0BDFB28B14468E30720D544F09B
:10B86000010002E0200140F002000146284603B03A
:10B87000BDE8F040FFF796BF082907D13346002204
:10B88000D6E9121008F0DAF90446E6E7092912D1E0
:10B89000009600230122D6E9121008F04DFA044662
:10B8A0000C212846B66BFFF749FF4FF49D730660E5
:10B8B000C0E90134D9E7A1F10A03012B1CD8D6E96C
:10B8C00012100A290BD8FDF773FB96F8403048B1E7
:10B8D0000A2B14BF0A21062141EA0010C5E7FDF733
:10B8E00037FBF2E7064C0748D6E912210A2B18BFAE
:10B8F00020460FF0C1FFD2E7090141F00E00B4E786
:10B90000D4D4050884D70508DE2807D010F0010339
:10B9100006D043080CBF012000207047012070476B
:10B9200018467047FE2807D010F0010306D04308E0
:10B9300014BF01200020704701207047184670474F
:10B9400010F0010204D040F00100086001207047AF
:10B95000A8B110F003030FD102793A2A0ED18368FF
:10B9600013F001000B600AD19A0708D11868044B44
:10B97000C31A5842584170471046704718467047DE
:10B98000F0C905082D2A2DE9F04F044685B08846F8
:10B9900016461D460AD10021FFF7C3FE30B18107CC
:10B9A00040F070810379922B40F06C81A6F11E0368
:10B9B000012B59D82A46A9460BE01E2E47D1FFF786
:10B9C000B1FFB8B90846FFF79FFF002818BF4F46E0
:10B9D000B94609F1FF376AB1013A20461146FFF72F
:10B9E000A0FE23690146A3EB090C636943F82C0010
:10B9F000002AE2D10021B94231D16D1A012D00F0A7
:10BA00004181A6F12303022B01D92A2E78D1691E88
:10BA10002046FFF786FE01A9FFF792FF00285AD0C3
:10BA2000232E3AD0242E3BD0252E14BF4FF02209CE
:10BA30004FF01809AF1E002F35DA002D40F06C8151
:10BA4000019EF30740F16D8146F001011FE0FFF711
:10BA50005BFF0028CED10846FFF764FFB5E720461C
:10BA6000FFF758FE0131C6E7202ECAD1002120463B
:10BA7000FFF757FE0246FFF747FF60B91046FFF792
:10BA800051FF0028BDD0DE212046FFF743FE2046AF
:10BA9000FFF788FEF6E0FE21F6E74FF01609C9E74A
:10BAA0004FF01709C6E739462046FFF73AFE02A9CC
:10BAB000FFF746FF78B1B9F1220F07D04846013FA2
:10BAC000DDE9011209F046FD0190B4E702980DF09E
:10BAD00038FE0028F2DAA91C204646EA052689002D
:10BAE000FFF72CFE0146C0F800804660002DCED046
:10BAF000013D2046FFF70EFE01EB85039860F5E758
:10BB0000A6F12603022B38D8691E2046FFF709FE4E
:10BB100001A9FFF715FF0028DDD0A5F10209B9F151
:10BB2000000F8ADD09F1FF312046FFF7FAFD02A977
:10BB3000FFF706FF0028CED049462046FFF7F1FD6B
:10BB4000C0F3071000F0FD03412BC4D02338C7B267
:10BB500002980DF0F6FD1A2F0AD80028BBDB3846F4
:10BB6000A9F10209DDE9011209F0F4FC0190D6E720
:10BB70001E2FF4D90028F2D1ADE7292E18D10021CB
:10BB80002046FFF7CEFD01A9FFF7DAFE0028A2D07C
:10BB900001212046FFF7C5FDC0F3071001993228A7
:10BBA00016BF3E380220C0B208F0A0FF019044E763
:10BBB000052E71D100212046FFF7B3FD074600286E
:10BBC00089D010F0030A03D10379563B012B82D9A7
:10BBD00001212046FFF7A5FD00F00F03022B7FF4A3
:10BBE0007AAFBAF1000F7FF476AF3B792C2B7FF45C
:10BBF00072AFBB6803F00F02022A7FF46CAF1B091F
:10BC0000482B7FF468AFFB68002B3FF464AF9A07C2
:10BC10007FF461AF1A79302A7FF45DAFD3F808B0B2
:10BC20004FEA101902A95846FFF78AFE68B942493F
:10BC300042480CF0EDFBA169054653463A68096895
:10BC40000CF0AEFC2846FCF7F3FA4FEAC9010122DA
:10BC500004F1280041F002010AF0BAF9029B4360A6
:10BC60004846FDF74DFA037820465F2B0DD1FFF7CC
:10BC700051FD2046FFF74EFD0023082220461946BD
:10BC8000FFF780FE05B0BDE8F08FFFF743FD594692
:10BC90002046FFF787FD1EE72C2E7FF41CAF012105
:10BCA0002046FFF73EFD024600212046FFF739FD02
:10BCB00002F00F03022B7FF40EAF00283FF40BAF0E
:10BCC00087077FF408AF0379322B7FF404AF1109A3
:10BCD000876800221A48C90041F002010AF078F989
:10BCE00000283FF4F8AE02AA3909406808F030FE97
:10BCF000029B002B3FF4EFAED90707D49A077FF4DD
:10BD0000EAAE19680F4A91427FF4E5AE039A002A21
:10BD10007FF4E1AE019390E62046013DFFF7FAFC87
:10BD20008BE60C212046FFF709FD4FF49D73014679
:10BD30000560C0E90136AAE691A60508ACC305086E
:10BD400018A60508F0C90508036830B513B91846E8
:10BD5000136030BD9C0702D010600120F9E75C68D9
:10BD6000E5B28D42F8D10833200A1360F1E70000F4
:10BD70002DE9F04F93B0002440230F4602904FF47A
:10BD800000700192CDE90534FCF776FA2023079084
:10BD90008020CDE90834FCF76FFA2146CDE90A0787
:10BDA0000FA8CDE90D440AF0D5F8019B002B53D024
:10BDB000022B0CBF3F2222460023B96B05A8FFF7D8
:10BDC00008FD4FF00008069C002C00F06981013C42
:10BDD000079BAE4D03EBC40253F834300694D6787B
:10BDE000C3F3170AAA4B632E526813F806B0A94B87
:10BDF0000BF00F099B5D88BF43F4807305EB43058F
:10BE00000BF03003102B29D0202B5AD0B8F1000FA3
:10BE100040F015810BF001030393039B134035F8A9
:10BE2000134024F47F6121F00F01B1F5805F40F0F1
:10BE30002181C4F30B0497F84010A14202F10104E0
:10BE400040F0FC801BB9314605A8FFF7EDFC3846F1
:10BE5000FFF734F92246E0E73D22ADE712B1B8F131
:10BE6000000FAED005EB4205914502D84FF0010816
:10BE7000A9E7A84635F8023B23F47F6121F00F01C2
:10BE8000B1F5805F0DD197F84010C3F30B039942D1
:10BE900015D105A83146FFF7C7FC3846FFF70EF964
:10BEA0008FE7531C4B4504D23246514605A8FFF795
:10BEB00090FCB8F8001005A8FFF7ACFC81E7013250
:10BEC000D2E7B8F1000F11D002F10043013B35F881
:10BED000133023F47F6323F00F03B3F5405F1BD1CE
:10BEE000002105A80392FFF75DFC039A05EB4204CD
:10BEF000914525D8019B002B46D1002405EB49092B
:10BF000022464D4560D1012A40F081801BF0400F50
:10BF10007DD00025294674E0012AA7D997F8403042
:10BF2000052B40F0EC805C495C480CF071FA04464B
:10BF30000023BA6B39680CF033FB2046FCF778F924
:10BF4000A04634F8023B23F47F6121F00F01B1F5E4
:10BF5000805F17D197F84010DBB299420ED10729C4
:10BF600005D1314605A80392FFF75EFC039A3846D7
:10BF70000392FFF7A3F8039A0132B9E7002A3FF4CE
:10BF800075AFCBE7531C8FE7052EB6D1002105A86E
:10BF9000FFF7C7FB0028B0D1012105A8FFF7C1FBBF
:10BFA000830700F0B38000F00F000228A5D005A899
:10BFB000FFF7B0FB05A8FFF7ADFB002308225146B1
:10BFC00005A8FFF7DFFCFCE639F8023D23F47F61AA
:10BFD00021F00F01B1F5805F05D1DBB2072B90D1C5
:10BFE000013401328DE7214605A8FFF79AFB00B125
:10BFF0000132013485E7FFF78DFB0135002818BFBA
:10C000000146A54205A8F6D1FFF7CCFBD9E61BF007
:10C01000800F04D00134002105A8FFF7C3FB23469D
:10C020003246CCE7012A3FF421AF12F001010DD0D6
:10C03000B9F1030F7FF472AF012107E02246B9F195
:10C04000020FEFD1012A3FF411AF00211BF0010FC5
:10C0500002F1FF3308D0688820F47F6020F00F00E1
:10C06000B0F5805F08BF5308012BD9D100293FF4F8
:10C07000A8AED5E7531C514605A83246FFF7A9FBE9
:10C08000214605A8FFF7C6FB9DE600BF50A705089F
:10C090009FA60508D8AA050854A60508A0C005084B
:10C0A0000FA809F06FFF0E9850B141682246083181
:10C0B000FCF708F90E9B5A681A600D9A5A600D93A6
:10C0C00097F84030002B7FF429AF099B002B3FF4F9
:10C0D00025AF0A9B07981B680C93FCF7F5F80A98A4
:10C0E000FCF7F2F83846FFF702FB0CAB93E80300CD
:10C0F000029B83E80300184613B0BDE8F08F022BC3
:10C1000001D1064910E7064906480EE700283FF42A
:10C11000F4AE03793A2B7FF4F0AE48E766A6050843
:10C120008DA60508ACC30508406810B500B910BD60
:10C130004468FCF7C9F82046F8E700002DE9F04113
:10C14000054630200E4690461F46FCF7AEF8072DF8
:10C1500004460570C660A0F8148001D0012D0FD1EF
:10C16000B3681B09E38207F03BFF04232061202012
:10C1700067832385FCF780F8E0622046BDE8F08104
:10C18000014B5B5DEEE700BF88AB050810B50446C8
:10C19000C06AFCF799F82046BDE81040FCF794B857
:10C1A00030B50022448D944202D80023184630BD99
:10C1B000C36A03EBC2035D688D42F7D00132F2E738
:10C1C00070B504460D461646FFF7EAFFC0B9218D4B
:10C1D000638D8B4208D30631E06AC900FCF767F82B
:10C1E000238DE06206332385638DE26A591C02EBDE
:10C1F000C300618502F833600023456043704380CB
:10C2000070BD43680BB9FFF7CBBF1846F9E7F8B527
:10C2100044680F462CB9F8BD032BFCD104230370EE
:10C22000F9E723465D68002DF5D07E681846314653
:10C23000FFF7B6FF2B460028F4D00378033B022B10
:10C24000E9D805231D463B70002231462046FFF702
:10C25000B7FF0378002BDFD105706468F4E7436A09
:10C260005B8B012B1EBF03695B1803617047C36AB8
:10C2700010B50446DB6F806A9847A38B626A01336E
:10C28000D18C9BB29942A38338BFD38410BD838BDA
:10C29000013B10B583830446C36A806AD3F88430B7
:10C2A000984720460121BDE81040FFF7D8BF2DE98F
:10C2B000F04180461F4659B111F0030510D14E6878
:10C2C000F3B293420CD1360A01F10804B54201DB06
:10C2D000BDE8F08154F8041B4046B8470135F5E746
:10C2E00040463B46BDE8F04118472DE9F04F044673
:10C2F00085B00D4691469A461BB10B8B43F008035F
:10C300000B83636AA5F820901A8B42F030021A83DF
:10C310001B78002B49D1E36A4A462946A06AD3F824
:10C32000B4605346B44605B0BDE8F04F6047DB6AE1
:10C3300003EBC60B13F83630043B012B20D8002347
:10C3400019E0EB6A039A039903EBC20213F8313048
:10C35000052B0ED1DBF804105368994209D1E36A2A
:10C3600008F10108BBF802205B69A06A1F460023A0
:10C37000B847039B01330393039A6B8D9342E0DC30
:10C380000136636A5A8DB242D1DCD4E90A03B8F1AE
:10C39000000FC0D0CDF800A04246D3F8B8402946DF
:10C3A0004B46A04705B0BDE8F08F0026B046E8E751
:10C3B0002DE9F041884611461A4600230446857946
:10C3C000878AC68A837143610F4BFFF770FFA368AA
:10C3D000C3B9E18A51B1A28A42B9E36AA06AD3F82B
:10C3E000A0309847E36AA06A5B6C9847A38A4146ED
:10C3F000E28A2046FFF779FF0035A78218BF0125A2
:10C40000E682A571BDE8F08179DB0008024B9D2230
:10C410008968FFF74CBF00BF49E80008024B6B2258
:10C420008968FFF744BF00BFCDCB0008C36A002175
:10C4300010B50446D3F88830806A9847E36AA06A4A
:10C440000E215B6B9847E36AA06A0121D3F8CC30D8
:10C45000984720460321BDE81040FFF700BF38B5DC
:10C46000C36A04460022806A9B6C9847E36AA06A0C
:10C47000D3F8C05000231A461946A8472046BDE805
:10C480003840FFF7D3BFC36A002289685B6D090992
:10C49000806A1847C36A89681B6C806A184710B5A0
:10C4A0000446084611462268FFF748FE636A436067
:10C4B00000238360236A13B9206210BD13469A6873
:10C4C000002AFBD19860F8E770B5437905460C4621
:10C4D000012B06D1436A0A4602215B8BFFF7DFFF7F
:10C4E0002061A268284621694C23BDE87040FFF70F
:10C4F0005FBF70B51346427906460C46012A04D147
:10C500000A460721FFF7CBFFA061A5693046462305
:10C51000E2682946FFF74CFFE88A70BD2DE9F04F2D
:10C5200087B005460C4600AF11B90121116013E038
:10C5300011F0030619D10B79682B06D1CB681B09C2
:10C5400013608C68002CF0D0012604F00F03022B3E
:10C550000DD12109002EE9D0EB6A0022A86A1B6BDD
:10C5600098471C37BD46BDE8F08F0026EDE716B9A9
:10C57000A3681B09136063684FF000094FEA132892
:10C5800004F1080308F1FF3A9B46FB60C14526DB36
:10C590000AF10E034FF0000B23F00703ADEB030D80
:10C5A000E946C7F808D0C34522DB5146B868FCF716
:10C5B000FFFCEB6A014600221B6BA86A9847002E1D
:10C5C000CFD00C3401264645CBDA54F8041B0022A8
:10C5D000EB6A01360909A86A5B6D9847F3E75BF8D7
:10C5E000040B09F101090009FCF785FD8244CDE740
:10C5F000BBF1000F05D04FF02E0309F1010909F836
:10C60000013CFB6807F114010BF1010B53F8040B1B
:10C610000009FB60FCF779FD7B69014648461A4634
:10C620007B601DF069FA7B689944BCE7036823B915
:10C6300019B18B0704BF0B680360704738B5836876
:10C6400004460D465BB9114605480BF0E1FE29464C
:10C65000A06004F10C00BDE83840FFF7E7BF38BD2B
:10C66000ACC305082DE9F04F04460D468DB01646C3
:10C6700062712B7861620021072B016105D0834A2A
:10C68000FFF7DCFF0DB0BDE8F08F012A06D0436B49
:10C6900000F108023146006B1B6898476379D5F8B2
:10C6A0000C80032B10D10BAA462108F10C00FFF7D8
:10C6B0004BFB636B01460B9A9B68206B9847A36802
:10C6C000A883002B40F0B180D8F81010002944D086
:10C6D00001F00F05022D3CD10B095E2B0ED004D8C2
:10C6E0003E2B0AD06A4A2046CAE7752B37D040F263
:10C6F000E3529342F6D1032500E00125D8F8143027
:10C700004FF000090AAA192109A80993FFF71CFB99
:10C710000690069B994524D16379012B15D9636B4B
:10C720002946206B5B6898476379042B0DD1002361
:10C73000606A03950293226B818BCDE9003105215C
:10C740000069D2E9023207F062FCA368002B6CD1C9
:10C7500098E7504A2046FFF771FF0225CEE70025F3
:10C76000CCE70A9B4FEA890B53F829100B79082B69
:10C7700002D109F10109CCE7052B01D0464AB2E705
:10C78000CB68002BFAD18B681A792C2AF6D19F68D6
:10C7900007F00F02022AF1D1DB680593002BEDD0E0
:10C7A0009A07EBD11B79302BE8D1059B0BAAA4216A
:10C7B0003F0903F10800FFF7C7FA40F2D64382466B
:10C7C0009F421BD1012805D10B9A136803F00F0378
:10C7D000022B04D0314A0A9B53F80B1083E72169DE
:10C7E000012E01F1010323611AD01268636B120953
:10C7F000206BDB68984798B9294AECE740F20A4376
:10C800009F4216D1012803D10B9B1968CF0701D491
:10C81000244AE0E7012E03D04910206B03F051FABF
:10C82000A368002BA5D0DDF81480D8F80030E360B1
:10C8300028E740F252439F421DD1012803D90B9BA8
:10C840001B68D80701D4184AC5E7012EE8D05B1051
:10C8500001270B9A52F82720D10701D4134ABAE7CF
:10C86000013719465210206B079303F031FABA458D
:10C87000079BEED1D4E7012ED2D0636B0246394636
:10C88000206BD3F810B00B9BD847C9E793AD0508D0
:10C89000A9AD0508ADAD0508BEAD0508CCAD0508D0
:10C8A000D8AD0508DCAD0508E8AD0508FAAD05080A
:10C8B000014AFFF7C3BE00BF05AE05080B79092B7F
:10C8C0004FF6FF7370B508BF058B044618BF458B44
:10C8D0009D4202D1064AFFF7B1FEA18BE28BE36ACB
:10C8E0008A1AA06A29469B6FBDE87040184700BFAE
:10C8F000F8AB050838B50546A9B101F00F03022BC6
:10C900000DD10C09204609F0A8F9002806DA2246C4
:10C91000064907480BF008FEA860002038BD054A0C
:10C92000FFF78CFEF9E70846F8E700BF56AE0508AA
:10C93000D8C405085BAE05082DE9F8430546406AF2
:10C9400017460E46028B12F0020C06D0324A3146D0
:10C950002846BDE8F843FFF771BE01F00F01022938
:10C9600017D1AC79310984B1C38B64460133C383D9
:10C970004FF0010800294CD00022FFF721FC03787A
:10C980008146002B30D0254AE1E7838B0133838336
:10C99000EEE731793446B94208D1B168AB7909097B
:10C9A000002BF2D0C38B0133C383E1E7994213D14B
:10C9B000AC79002CCAD10123AB71B16849B301F045
:10C9C0000F0342F004024FF00308022B02831CBF46
:10C9D0000C46A1680909CDE7B16842F002024FF0A8
:10C9E000050809090283C5E7032380F80180037065
:10C9F0006B6A5B8B032B0CD1482F0AD14CB1E168D9
:10CA00002846FFF777FF99F8013043EA001089F8CC
:10CA10000100BDE8F88300BF8DA6050889AD0508B3
:10CA20004F234E22FFF788BF49234822FFF784BFD8
:10CA300010B442790B46446A012A04D120465DF8BD
:10CA4000044BFFF7BDBBC16A2246806A14315DF812
:10CA5000044B02F025BC10B444790B46426A012C09
:10CA600004D110465DF8044B02F00CBCC16A5DF8BD
:10CA7000044B1C31806A02F013BC436A10B50446B3
:10CA80005A8BFFF736FD01462046BDE81040FFF700
:10CA9000E2BF00002DE9F3418D6804460E4605F023
:10CAA0000F030E2B06D0002D30D0AB072ED12B79E3
:10CAB000652B1ED10095002501AA65216846FFF768
:10CAC00043F9019B002140F2BE5203EB80009842E3
:10CAD00015D1F26840F20E439A4235D1636A1F784D
:10CAE000B7B1394A31462046FFF7A8FD02B0BDE88C
:10CAF000F081622B0AD1AB680093ED68DCE753F854
:10CB0000047B97420CBF01310331E0E70021E0E7ED
:10CB1000E36AA06A9B6B9847E36AA06A0521DB6B16
:10CB20009847E36A3A46A06AD3F8A03001219847B3
:10CB300001AA29462046FFF7F1FCE36A02223946A2
:10CB40001B6BA06A9847D1E7E36AA06A9B6B984782
:10CB500006F10C006A466A21FFF7F6F80026074640
:10CB6000BE42D4E90A0311D1D3F8A03000223146E5
:10CB700098472946002501AA2046FFF7CFFCAE4280
:10CB8000D4E90A030BD11B6E9847AFE7009ADB6B21
:10CB900052F826200136916809099847E0E7009A83
:10CBA0001B6B52F825800122D8F808703F093946DE
:10CBB0009847D8F80C1029B9394620460135FFF7B7
:10CBC0004AFFDCE70909F8E76BAD0508C36A37B52A
:10CBD00004460D469B6B0021806A9847E36AA06A71
:10CBE0000E215B6B984701AA29462046FFF796FC69
:10CBF00001992046FFF72FFF03B030BD10B44479F0
:10CC00000B46426A012C04D110465DF8044B02F039
:10CC100039BBC16A5DF8044B2431806A02F040BB25
:10CC200037B504460D46A9B1CA0705D5C36A4910F0
:10CC30009B6BA06A98470DE08B0730D001F00F0581
:10CC40000B09062D08D00A2D0CD0022D1FD1194634
:10CC5000FFF7EEFE03B030BDC26A1946806AD26BA0
:10CC60009047F7E74279042A03D0C36A06211B6C78
:10CC7000DFE701A91846FCF748FAE36AA46A0199BC
:10CC80001D6C0FF09BF801462046A847E2E7042BF5
:10CC9000E0D0C26AD9B2806A526B9047DAE7C36AC1
:10CCA00009681B69806A98472A79034B2946204600
:10CCB00053F82230BEE700BF48AC05082DE9F14F1C
:10CCC0000D4604461646A90712D005F00F03022BA5
:10CCD00017D129090AB1022A05D1204601B0BDE8C1
:10CCE000F04FFFF7B8BE01B0BDE8F04FFFF7A0BEB0
:10CCF0006968CBB22D2B7BD00BD8062B0DD02C2BFB
:10CD000012D0554A2946204601B0BDE8F04FFFF742
:10CD100095BC2E2B7DD09D2BF3D1002EF1D105F1AA
:10CD200008030A0A002187E0022A02D0A968FFF757
:10CD300077FFEF68002FE4D017F00309E1D17B689B
:10CD4000B846DAB28E2A0DD1022E4FEA132805D04A
:10CD500007F1080A08F1FF3BD94511DB08F101088A
:10CD600057F8288098F80430312B24D1022E0FD1A7
:10CD7000E36AA06A9B6E9847E36A1B6D012115E088
:10CD80005AF8041B2046FFF74BFF09F10109E3E7BE
:10CD9000D8F808102046FFF743FF012EE36AECD1D4
:10CDA000DB6DA06A9847E36A00211B6DA06A01B0A1
:10CDB000BDE8F04F1847322BA3D1012ED4E90A0366
:10CDC0000CD19B6D9847E36AD8F8081000225B6D80
:10CDD0000909A06A01B0BDE8F04F1847022E01D141
:10CDE0005B6E9847E36A0122D8F808105B6DEFE7A5
:10CDF000A868002885D0002A83D1C16839B311F012
:10CE0000030324D14A68D6B2952E17D11A468168F9
:10CE100012E0002A7FF475AFA96829B90B4601B06A
:10CE2000BDE8F04F00F01AB88B0703D10B79084624
:10CE3000922BE2D000231A462046F0E7962E03D12B
:10CE400001F10803120AE2E7AC2E3FF45AAF00F1F9
:10CE50000803022266E700BF8FAB05082DE9F84FF3
:10CE60000F1E05469246994614BF4FF001084FF039
:10CE700000081DD017F003041AD13B79222B17D1DB
:10CE8000C36A2146806AD3F8B030984700260AF179
:10CE9000FF3B56450FD1631C29D1EB6A06EB080115
:10CEA000A86AD3F8AC3098474FB30022394623E044
:10CEB0004FF0FF34EAE759F8261081B18A070ED106
:10CEC0000B79222B0BD101340BD106EB0804EB6A52
:10CED000ABEB0602A86AD3F8B0302146984701367A
:10CEE000D7E728460F4ABDE8F84FFFF7A7BB37B191
:10CEF000002CDAD12246B9682846FFF7DFFE00276A
:10CF0000BE4201D1BDE8F88F07EB080359F827109E
:10CF100000222846A34207F1010708BF8968FFF7EE
:10CF2000CDFEEDE7A3AB05082DE9F74F04460D460E
:10CF300016461F462846FEF7E7FC20B1D6B9E36A3D
:10CF40003946DB6E4DE02846FEF7ECFC10B1002EB2
:10CF5000F5D10FE0002D55D0AB0753D16B684FEAE8
:10CF6000132ADBB21E2B1AD1EEB1083505EB8A0A63
:10CF700055450CD103B0BDE8F08F5B46019A59F8D6
:10CF8000041B2046FFF7D0FF08F101081AE03B46DA
:10CF9000324655F8041B2046FFF7C6FFE8E71F2B73
:10CFA00024D1002EE1D0D4F810B005F108094FF0DB
:10CFB00000080BF1010323610AF1FF33009386F0AF
:10CFC00001030193009B4345D7DC0AF101013B4675
:10CFD0003246204655F82110FFF7A6FFE36A59466E
:10CFE000DB6AA06A03B0BDE8F04F1847202B03D1DD
:10CFF00086F00106AD689DE72D2B03D1AB68002BB1
:10D00000A5D19BE729462046FFF70AFEE36A3A4688
:10D0100031461B6FA06A03B0BDE8F04F18472DE9F9
:10D02000F04706691F4604460D46B31C314691463B
:10D0300006F101080361C36A806ADB6A9847E36A04
:10D040004146A06AD3F88C309847A9680022204650
:10D05000FFF734FE2D69002D2DD149462046FFF7FC
:10D06000DFFD636A1978E36A06291DD1D3F8CC3055
:10D070002946A06A984720460121FFF7F0F8E36AA5
:10D08000A06A1B6E9847E36A3146A06ADB6E984738
:10D09000E36AA06A4146DB6A9847E36AA06AD3F86C
:10D0A0009030BDE8F0471847BA00D3F8A830A06A1E
:10D0B00005329847E7E72B79AD2B07D1A9683346AE
:10D0C00000222046FFF730FFED68C4E7E9682046FC
:10D0D000FFF7A6FDE36AA06A0121D3F888309847DC
:10D0E0007B1C4A4629462046FFF799FFCBE7000004
:10D0F0002DE9F04104460E46002511466271324684
:10D10000C36A056146621B68806A9847062120460B
:10D11000FFF7A5F86779012F08BF7562F5686DB153
:10D12000AA070BD12B793F2B08D1A968FFF778FD0F
:10D13000E36AA06AD3F8C43098472CE033784BB93F
:10D1400029462046FFF76CFDE36A5B6B0E21A06A5F
:10D150009847EDE7072B24D1012F12D10023462257
:10D160002046A3715E4BE968FFF7A1F8738B032B90
:10D1700007D129692046FFF7BDFB338B43EA8010B6
:10D18000308320466969FFF74BFDE36AA06A9B681C
:10D1900098470028D8D0E36AA06A5B68BDE8F041F0
:10D1A0001847022B1BD1E36A29681B69A06A9847BC
:10D1B0006379012B07D100234C222046A371494BF0
:10D1C000A968FFF774F8E9682046FFF729FD338B5B
:10D1D000DB07ADD5E36AA06A1B6E9847B4E7033B53
:10D1E000032B4FD8012FD5F80C8005D103223946E7
:10D1F000606AFEF7E5FFB783E36A29681B69A06AE6
:10D2000098473378032B24D1E36A0122D3F8A03066
:10D210000021A06A98473378062B28D1E36AA06AD8
:10D220005B6C984701212046FFF702FCE36AA06A85
:10D230005B6C9847E36AA06A5B6C98470023AA6816
:10D2400041462046FFF7EBFE3378062B3FF47CAFD8
:10D250006EE7042B04D1E36A0222D3F8A030D7E7AB
:10D26000052BD8D1E36A0322D3F8A030D0E72046BB
:10D270000121FFF7DDFBE36A0121A06AD3F88830C2
:10D280009847DBE7012F04D103220A213046FEF73D
:10D2900097FF17212046FFF7CBFB16212046FFF70B
:10D2A000DAFBA968E36A0909A06ADB6B98471A21CF
:10D2B0002046FFF7D0FB29692046FFF7B1FC0A2181
:10D2C0003046FEF76DFF0378032BE36A3FF43DAF72
:10D2D0005D690A2142880023A06AA84728E700BFA9
:10D2E00029CA000821CA000838B5436A04460A461C
:10D2F0001B78072B06D0022B04D0154ABDE8384016
:10D30000FFF79CB9956885B9E36A0E21A06A5B6B4B
:10D310009847E36A0021A06AD3F8CC3098472046AA
:10D320000121BDE83840FEF79ABFAB070BD12B793E
:10D33000AF2B08D12046A968FFF772FC2046BDE854
:10D340003840FFF773B829462046FFF769FCE0E74D
:10D350006BAE050801F00F03022B70B504460E46B4
:10D36000154602D00B4AFFF769F929462046FFF718
:10D3700057FCE36AA06A9B6D9847656A31092046AD
:10D380002B78033B032B9CBF6B686362FFF763FB47
:10D39000656270BD8FAB0508D1E90212FFF7DABFF5
:10D3A00070B5437904461646CD68012B06D1436A11
:10D3B0000A4631465B8BFFF772F8686100236969A2
:10D3C00020461A46FEF791FFE9682046FFF728FC41
:10D3D000062E05D1E36A0021A06AD3F88830984769
:10D3E000E36A0121A06AD3F8BC500023AC461A4678
:10D3F000BDE87040604700002DE9F04F4FF0000B92
:10D4000087B004461F46D946DA465E46D84603A88A
:10D41000CDE9022105AAA421FEF796FC0190019B0B
:10D420009B451AD16EB1BAF1000F74D1E36AA06ABC
:10D430005B6C9847B9F1000F73D1E36AA06A5B6C2B
:10D440009847029AD4E90A03002A70D0D3F8C04062
:10D45000334642463946A04710E0059A52F82B5011
:10D46000002D49D0A80747D12A79A62A0FD1F10764
:10D4700007D5304A29462046FFF7E0F807B0BDE857
:10D48000F08F46F00106AA460BF1010BC7E7A72A69
:10D4900007D1B20701D5284AECE746F00206A946B3
:10D4A000F2E7A82A28D1EA686AB193070BD111796B
:10D4B000AA2906D192682046A968FFF74BFF0137D9
:10D4C000E2E7AC2912D0A96801F00F02022A01D0CC
:10D4D0001A4ACFE7E26A0909A06A08F10108D26B8B
:10D4E0009047E9682046FFF79BFBCDE706222946D7
:10D4F0002046FFF755FFE2E70EB1114ABAE7B8F14F
:10D50000000F01D00F4AB5E729462046FFF788FBF8
:10D5100001374646B8E7DAF808102046FFF780FBE7
:10D5200088E7D9F808102046FFF77AFB89E7D3F897
:10D53000BC408DE712AE050819AE050821AE0508FE
:10D540002EAE050837AE050870B50D464179044684
:10D550001346012903D12A46FEF7A1FF6861E36A59
:10D56000A06ADB6C98476E690023204631461A4654
:10D57000FEF7BBFEE36AF18ADB6BA06A9847E968B5
:10D5800029B18B0703D10B79A32B08BF00212046BB
:10D5900002230022FFF730FFF08A70BD436A10B506
:10D5A00004465A8BFFF7D0FF01462046BDE81040E5
:10D5B000FFF751BA002389681A46FFF71DBF38B537
:10D5C00005460C46C968FFF72BFBA1682846BDE855
:10D5D0003840FFF725BB0B79342B70B504460D4658
:10D5E00010D18968FFF71CFBED68AD6885B9E36A67
:10D5F0000E21A06A5B6B9847E36A04220221D3F8EC
:10D60000A0301AE0C36A0E21806A5B6B9847ECE792
:10D61000AB071FD12B799A2B13D1E36A0E21A06A95
:10D620005B6B9847A9680029E6D02046FFF7F8FA17
:10D63000E36A04220321D3F8A030A06ABDE8704059
:10D6400018479B2B06D1A9682046FFF7E9FAEB683B
:10D650009968E8E729462046FFF7E2FACCE710B5DB
:10D6600004468968FFF7DCFA0021E36AA06A1B6DB3
:10D67000BDE81040184700002DE9F7438D680446C7
:10D68000164645B9F2B1C36A02222946D3F8A03042
:10D69000A06A984716E0AB0740F085802B79372BBE
:10D6A00013D132B1C36A02220121806AD3F8A030BB
:10D6B000984720462946FFF7B3FAE36AA06AD3F8F1
:10D6C000A430984703B0BDE8F0839F2B6BD1EB6883
:10D6D0001A79A12A57D1A22101AA03F10800FEF765
:10D6E00033FBA968804619B38F0721D10B79372BFB
:10D6F0001ED136B1E36A411C0222A06AD3F8A030E1
:10D700009847A9682046FFF78BFAE36A4FF00109B2
:10D71000A06AD3F8A4309847002747450ED1B9F145
:10D72000000FCFD1E36A0322791CD3F8A030AFE712
:10D7300020464FF00009FFF773FAEDE7019B53F81D
:10D74000271099B18E0711D10E79A6F13700464204
:10D7500046412046FFF764FAB9F1000F0FD03EB9F9
:10D76000164A29462046FEF769FFABE70026F0E798
:10D77000E36AA06AD3F8A43098470137CDE7002EBA
:10D78000FBD00F4AEDE7AB684BB19A0707D11B7985
:10D79000372B04D104222946FFF702FE92E7052227
:10D7A00029462046F8E729462046FFF739FAE36A7A
:10D7B00003220121D3F8A0306AE700BFBEAB050801
:10D7C000CFAB05080122FFF757BF2DE9F04107460F
:10D7D00015460C4611B10124FFF722FA3DB16E68DF
:10D7E0004FF000080835360AB04509DB3444FB6ABF
:10D7F0002146B86A0022D3F8A030BDE8F0411847AE
:10D8000055F8041B3846FFF70BFA08F10108EBE75F
:10D810000A460021FFF7D9BF2DE9F8430C46896875
:10D820000546FFF7FDF9E668002E4BD07768696A78
:10D83000FBB209788E2BA36819BF04F10C060127EF
:10D840003F0A0836072903F00F024BD1022A3ED1C6
:10D850001A099A2A48D132681179302944D192683C
:10D86000002A41D10A212846FFF7E2F86A6AD36A02
:10D87000528D32B9316828463F4ABDE8F843FEF779
:10D88000DDBE5978C9071FD559682846FFF7D0F87B
:10D89000022FEB6A1DD97268A86A1179322918D152
:10D8A000B4682179302914D1916801229B6C09094F
:10D8B0009847A1680324002301222846FFF79CFD16
:10D8C000A74231D8BDE8F883013A0833D1E70024F4
:10D8D000F6E7D3F8BC4000230221A86A1A46A04705
:10D8E0000124EDE7022AF2D11B09B3F56D7FEED1D9
:10D8F00033681A79302AEAD19B68002BE7D013F0FD
:10D900000304E4D11B792F2BDAD1EB6A224621469E
:10D91000A86AD3F8BC802346C0473368224628460D
:10D920009968FFF7A9FEDBE704F10108A30056F8A8
:10D930002410B8451AD20A79322A17D13344D3F8C1
:10D94000049099F80430302B10D189680022EB6ADA
:10D950000909A86A9B6C984700230122D9F808108E
:10D960002846FFF749FD08F10104A9E72846A0462B
:10D97000FFF756F9F7E700BFE5AB050870B50D46B0
:10D98000C9680446FFF74CF9A968E36AC1F30711B7
:10D99000A06AD3F89830322916BF3E390221C9B2A5
:10D9A000BDE870401847F8B54E680C4600258968F8
:10D9B000360A0C340746FFF733F902350834AE4215
:10D9C00000DCF8BD54F8041C3846FFF729F954F878
:10D9D000081CFB6A0909B86AD3F89C302339C9B21C
:10D9E0009847EAE72DE9F0414D680C460126896821
:10D9F000A5F10D070C342D0A8046FFB2FFF710F990
:10DA0000AE4201DBBDE8F08154F8041B4046FFF74D
:10DA100007F9D8F82C303946D8F82800D3F89C30CC
:10DA200001369847ECE72DE9F0414D688846896852
:10DA300004462D0A0126FFF7F3F8032D89BF276955
:10DA400000277B1C2361731CAB4222DB032D57DDB7
:10DA50002569A06A6B1C29462361E36ADB6E98473F
:10DA6000E36A3946A06ADB6A9847E36A0121A06A43
:10DA7000DB689847E36AA06A5B6E9847E36AA06A2E
:10DA80001B6E9847E36A2946A06ADB6ABDE8F0414D
:10DA9000184708EB860302362046D968FFF7C0F81E
:10DAA000AE4207DAE36AA06A9B6D9847E36AA06A10
:10DAB0009B6E984758F82610E36A01F00F02A06A9F
:10DAC000D3F89C300E2A10D1C1F30711242916BFB8
:10DAD00033390621C9B29847AE42B4DAE36A3A460E
