:020000040800F2
:1000000000800120993900086D2500085739000843
:100010006F250008752500087B25000800000000FA
:100020000000000000000000000000008125000822
:1000300083250008000000008525000889250008A8
:100040005739000857390008573900085739000850
:100050005739000857390008573900085739000840
:100060005739000857390008573900085739000830
:100070005739000857390008573900085739000820
:100080005739000857390008573900085739000810
:100090005739000857390008573900085739000800
:1000A00057390008573900085739000857390008F0
:1000B000573900085739000857390008A1250008AA
:1000C00057390008573900085739000857390008D0
:1000D00057390008573900085739000857390008C0
:1000E00057390008573900085739000857390008B0
:1000F00057390008573900085739000857390008A0
:10010000573900085739000857390008573900088F
:10011000573900085739000857390008573900087F
:10012000573900085739000857390008573900086F
:100130005739000800000000000000000000000027
:10014000000000000000000000000000AD250008D5
:10015000573900085739000857390008573900083F
:10016000573900085739000857390008573900082F
:1001700057390008B9250008000000000000000001
:10018000573900085739000857390008573900080F
:100190005739000857390008000000005739000897
:1001A00000000000000000000000000057390008B7
:1001B000573900085739000800000000000000000F
:1001C000000000000000000000000000000000002F
:1001D0000000000000000000000000005739000887
:1001E00040EA0103F0B59C0709D0431E0A4491423E
:1001F00000D1F0BD11F8014B03F8014FF7E7950866
:10020000061FAB00CC18A1420CD19107034442BF9A
:1002100034F8021B023320F82510D20744BF22789D
:100220001A70E6E751F8047B46F8047FEBE730B537
:1002300031B102440346934215D003F8011BFAE79B
:1002400010F00304F5D19508014600EB85039942AF
:100250000AD1910742BF0021023320F82510D207AE
:1002600001D500221A7030BD41F8044BEFE70A4473
:1002700010B5914201D1002010BD10F8014B11F8CA
:10028000013B9C4202D3F4D90120F5E74FF0FF3047
:10029000F2E742884378007843EA022340EA0320E9
:1002A000704743690239023B8B4283BF8389806A6E
:1002B00001FB03000020704737B50D46044620B906
:1002C000092000232B6003B030BD0368002BF7D05A
:1002D0001A79002AF4D081881A899142F0D10DF15F
:1002E00007020621186802F01FFB0028E8D19DF8DC
:1002F000070010F00100E3D12368E3E70328CA7E7A
:100300008B7E08BF487D43EA022302BF0A7D42EA92
:10031000002243EA02431846704738B5C36A0546CF
:100320000C468B420ED00A46012300F130010068D2
:1003300002F0E9FA002816BF4FF0FF340020012038
:10034000EC6238BD0020FCE7002310B583714FF04C
:10035000FF330446C362FFF7E0FF18BB94F82F2277
:1003600094F82E3243EA02234AF6552293421BD1D7
:1003700094F83030EB2B03D01833DBB2012B15D8B7
:1003800003220B4904F16600FFF771FF48B1052213
:10039000084904F18200FFF76AFF002814BF022019
:1003A000002010BD0420FCE70320FAE70220F8E754
:1003B00021540008255400082DE9F043037987B043
:1003C000044673B900230DF107020521206823714B
:1003D00002F0AAFA9DF8076016F001060FD003207C
:1003E0000AE00DF107020621006802F09DFA9DF86F
:1003F000070010F00100E5D107B0BDE8F0833146F9
:100400002046FFF7A1FF02287BD104F5FB7102AF64
:1004100011F8040C10B10846FFF73BFF47F826001F
:1004200001361031042EF3D1002557F82560002E37
:100430005FD031462046FFF787FF01285AD894F84D
:100440003C2094F83B3043EA0223B3F5007F5CD1B3
:1004500094F8473094F8461051EA032104D104F18E
:100460005400FFF716FF014694F84090A16109F18E
:10047000FF3384F80590012B47D894F83D801FFA8C
:1004800088F3A381002B40D008F1FF3313EA080F53
:100490003BD194F8423094F8417047EA03273B0778
:1004A000678132D194F8445094F8430050EA052013
:1004B00003D104F15000FFF7ECFE94F83F2094F8CC
:1004C0003E3053EA022320D001FB09F903EB171257
:1004D0004A44824219D8851AB5FBF8F5ADB12D48CA
:1004E000854212D84FF6F570854221D94FF00308A6
:1004F00026E003200135042D97D1042805D10120E1
:100500007AE70428FBD0012899D90D2074E7002F41
:10051000FBD0B8F1020F4FEA45004B441CBF401915
:1005200005F0010563620CBF054605EB500520E0B0
:1005300040F6F578454594BF4FF001084FF00208AA
:1005400033440235E661B8F1030F16446561236256
:10055000A662DCD194F85B2094F85A3053EA022367
:10056000D3D1002FD1D1AD0004F15C00FFF791FE93
:10057000606205F2FF15B1EB552FC6D3064A002085
:1005800084F80480138801339BB213802381034BCA
:10059000236131E7F5FFFF0F20000020220000203B
:1005A0000129F8B505460C4652D9436999424FD204
:1005B0000379022B29D0032B38D0012B48D101EB32
:1005C0005106016A01EB5621FFF7A7FE10B14FF06B
:1005D000FF30F8BD771CC6F30806296A28462E446A
:1005E00001EB572196F83060FFF797FE0028EED117
:1005F000C7F30807E3073D4495F8300046EA0020BA
:100600004CBF0009C0F30B00E3E7016A01EB1421C2
:10061000FFF783FE0028DAD16400303504F4FF745C
:100620002B19285D5B7840EA0320D2E7016A01EBD1
:10063000D411FFF772FE0028C9D1A40005F13000E3
:1006400004F4FE742044FFF724FE20F07040C0E75D
:100650000120BEE7F8B50669044605682036B6F500
:10066000001F24BF00238361836963B1C6F30807B9
:1006700007BB01334169836139B96B89B3EB561FFD
:1006800018D80023A361042019E0AB89013B13EAC9
:1006900056230FD12846FFF783FF012801460FD9C3
:1006A000431C0FD06B699842EBD260612846FFF77C
:1006B000F8FDA0613035002026613D44E561F8BDBC
:1006C0000220FCE70120FAE738B5826800230546DE
:1006D0000468036192B92379022B01D9636A73B963
:1006E00063890BB9022038BD636AAB61AB696A618B
:1006F000002BF7D030340020EC61F4E71346A189D9
:100700001A4661B911462868FFF74AFF431C0246A2
:100710000BD00128E6D963699842F3D3E2E7194682
:100720002046FFF7BEFDA861E0E70120DBE70000FF
:100730002DE9F04F036887B004460193884611F80D
:10074000013B2F2BFAD05C2BF8D00023A36098F844
:1007500000301F2B00F277818023204684F82B3055
:1007600007B0BDE8F04FFFF7AFBF7F2807D8A94912
:1007700011F8012F1AB19042FAD1062744E1FF2E59
:10078000FBD023F81600013660E132F8021D202963
:1007900002D02E2940F07E81013E78E1394681E188
:1007A000D14505D2964268D1BAF10B0F5DD102E076
:1007B000BAF10B0F53D145F003054FF00B0AEDB220
:1007C00094F82030E52B04BF052384F82030BAF1DB
:1007D000080F04BFBF00FFB207F00C030C2B03D0BF
:1007E00007F00303032B02D145F00205EDB2AB077E
:1007F00009D4FE0744BF45F01005EDB2780744BFA9
:1008000045F00805EDB22368204684F82B5002938A
:10081000FFF75AFF0746002840F0ED804FF0FF0A2F
:100820004FF0FF335546E362A1690298FFF775FD6B
:100830000746002840F0DF80E6693378002B00F09F
:10084000E780F17AE52B01F03F02A27103D009079E
:1008500053D50F2A53D04FF0FF33E362A7E09642FF
:1008600003D045F00305EDB2AAD3BF0032464FF0E6
:100870000B0A4FF00809FFB246E17F283BD940F24E
:10088000B51145F0020BCDE9023200F01DFA10F06F
:10089000800F5FFA8BFBDDE9023212D000F07F009F
:1008A0005D49085C38B15D4D15F8011F002900F065
:1008B0002F818142F8D14BF0030B5F205FFA8BFB55
:1008C00011E0FF28EED90AF1FF31894504D345F044
:1008D0000305D146EDB217E104EB0901050A09F160
:1008E000010981F8205004EB09015D4609F1010975
:1008F00081F8200008E1AB46D5E70F2A5ED194F8D5
:100900002B20520649D45F064FD503F0BF0523695B
:1009100096F80DA0E362737B534548D1F37EB77E12
:1009200047EA03273FB2002F41D196F800900121FA
:10093000029B09F03F09D3F810B009F1FF334FF0E3
:100940000D0909FB03F9364BFA5CB318B25C5B780E
:1009500042EA032369B3B9F1FF0F28D8184605937B
:1009600000F0E6F909F1010204903BF81900039246
:1009700000F0DEF90499814219D1059B039A1946CA
:10098000914601370D2FDED13378580603D511B1CA
:100990003BF819305BB9013DEDB22046FFF75AFE36
:1009A000074600283FF440AF25E0AB42B3D0FF2517
:1009B000F3E74FF6FF729342E3D0F8E775B906F11B
:1009C0000B023346E90141EA550513F8011B51FAC0
:1009D00085F59342EDB2F5D1AA450CD094F82B30B1
:1009E000D9073FF538AF0B2200993046FFF73FFC9F
:1009F00000287FF430AF94F82B309FB1042F03D13F
:100A000013F0040F08BF0527384607B0BDE8F08F84
:100A10000427F0E72A5400089453000833540008D0
:100A2000145400085A07EFD4A379DB066ED5019B56
:100A300003F130012369C3F308031944019B1879BA
:100A4000FFF75CFCA060236800261B6918F8010B07
:100A500078B140F2B511009300F056F900283FF448
:100A60008CAE1F28009B04D92F2802D05C287FF46D
:100A70007CAE41460A78884601312F2AFAD05C2A9A
:100A8000F8D01F2803EB46028CBF00250425002E5A
:100A90007FF47BAE002103EB460223F81610002EF4
:100AA0003FF46BAE33F811004F1C20283FF476AEB4
:100AB00009B92E2802D145F00305EDB232F8020D36
:100AC0002E2801D0013EF9D104F120024FF0000997
:100AD0004FF0080A00924F464FF0203200982262F1
:100AE0004260C0F8072033F811004A1C00283FF488
:100AF00067AE202805D02E287FF452AE96423FF4F0
:100B000053AE45F00305EDB21146ECE705277BE750
:100B1000A0F1410189B2192901D847F00207A0F1DB
:100B2000610189B219299EBF203847F0010780B2C0
:100B3000D9E600BF00220271FFF73EBC2DE9F0416B
:100B400006468CB090461F460D4691B3FFF734FC25
:100B5000044648BB0CA8414640F8306DFFF7E8FD5D
:100B6000044608BB9DF92B30002B1CDB9DF806309A
:100B7000DB061CD4DDF81C8007F001073079414604
:100B8000FFF7BCFBA86008F11C00FFF782FB33896C
:100B9000E8602E60AB802F746C74EC616C61204651
:100BA0000CB0BDE8F081062400232B60F7E7042495
:100BB000FAE70924F3E72DE9F74F99460023884621
:100BC00001A9C9F8003004461546FFF775FB064633
:100BD000F0B9667CE6B9237CDA0769D5E368676912
:100BE000DF1BAF4228BF2F4697B16369C3F30802EA
:100BF000002A44D1019AB2F80CA00AF1FF3A1AEA8D
:100C0000532A13D143B9A06801280AD80226667472
:100C1000304603B0BDE8F08FA1692068FFF7C0FC43
:100C2000F2E7431C01D10126F1E7A061DDF804B031
:100C3000A1695846FFF735FB0028E7D07D0A0AEB8B
:100C400000021BD0BBF80C300AEB0501DBF80000FA
:100C50009942414688BFA3EB0A052B4601F053FE9B
:100C60000028E0D16D02D9F800307F1BA8442B4446
:100C7000C9F8003063691D446561B5E7E2616569E3
:100C8000E169C5F308050198C5F50075BD4228BFA7
:100C90003D46FFF742FB0028C5D101992A4663690A
:100CA00040463031C3F308031944FFF799FADAE7F5
:100CB0000726ADE713B501A90446FFF7FDFA00B911
:100CC000206002B010BD00007F2810B501D880B2AE
:100CD00010BDB0F5803F03D240F2B513994206D063
:100CE0000020F5E70132802A03D1134606E00022F6
:100CF000044C34F8121093B28142F3D103F1800016
:100D0000C0B2E5E7EA5600087F280DD940F2B513D6
:100D1000994208D1FF2806D800F10040034B8038E3
:100D200033F8100070470020704700BFEA560008F3
:100D3000B0F5803FF0B521D21E4A83B21E49B0F50E
:100D4000805F28BF0A46141D34F8042C2146A2B146
:100D5000934212D334F8025C2E0AEDB2AF18B842B7
:100D600022DA082E09D8DFE806F0050A1012141658
:100D7000181A1C00801A34F810301846F0BD981A62
:100D800000F001001B1A9BB2F7E7103BFBE7203B8A
:100D9000F9E7303BF7E71A3BF5E70833F3E7503B59
:100DA000F1E7A3F5E353EEE70434002ECCD101EBD9
:100DB0004502C8E73C5400082E56000810B501440F
:100DC0000A4C884201D1104610BD10F8013B534037
:100DD00003F00F0254F8222082EA131303F00F02EB
:100DE00054F8222082EA1312EBE700BFEC57000808
:100DF000F0B51FFA82FC41F2B0574FEA124E4FF69F
:100E0000F17411B94CEA0E40F0BDB9420D4628BF4D
:100E10003D4625F00F060644B0420ED105F00F0303
:100E2000034483424CD1491BBCFBF4F304FB13CCB9
:100E3000BEFBF4F304FB13EEE3E7037810306344E6
:100E400010F80FCC9C4403EB0C0210F80E3C7244DB
:100E5000634410F80DCC1A449C4410F80C3C6244D6
:100E6000634410F80BCC1A449C4410F80A3C6244CA
:100E7000634410F809CC1A449C4410F8083C6244BE
:100E8000634410F807CC1A449C4410F8063C6244B2
:100E9000634410F805CC1A449C4410F8043C6244A6
:100EA000634410F803CC1A449C4410F8023C62449A
:100EB000634410F801CC1A449C4402EB0C0EABE7DF
:100EC00010F8012B9444E644ABE770B5831E88B05C
:100ED00000F11E04002523F8025FA342FBD10A445F
:100EE0000B4693420FD100231C4603802DF814308B
:100EF00030F814500134102C2B44F7D1CD439142DB
:100F000009D108B070BD13F8015B30F81540013409
:100F100020F81540E5E711F8013B002BEFD008ACB5
:100F200004EB430333F8204C661C103423F8206C88
:100F30006B1820F81430E2E7D0E9003210B5934284
:100F4000044603D25A1C0260187810BD83683BB176
:100F500090F8252022B99847002801DBC0B2F4E7B9
:100F60000123002084F82530EFE703695A1E10B5ED
:100F70000446026123B9FFF7DFFF0723E060236126
:100F8000E068430800F00100E36010BD2DE9F04186
:100F90008046164679B10125002405FA01F7BD42C5
:100FA00002D33019BDE8F0814046FFF7DEFF00B103
:100FB0002C446D00F3E70C46F3E72DE9F843814636
:100FC00000200E468F1C01F12008054644004846CB
:100FD000FFF7CBFF474520440AD037F8023BC01A41
:100FE0001D44F3D52844103036F81000BDE8F883CE
:100FF0006FF00200FAE700002DE9F04F0546D1B08E
:101000000F469146052140F20112FFF7BFFF012272
:10101000052106462846FFF7B9FF042280462846E8
:101020001146FFF7B3FF002382461A460DF803204E
:101030000133132BFAD10024DFF8B0B0544516D198
:1010400006EB080A0024132269463846FFF73DFFE5
:10105000544517D3324669463846FFF736FF4846AF
:1010600042460DEB0601FFF730FF002019E0002299
:1010700003212846FFF78AFF14F80B3001340DF8DE
:101080000300DBE739462846FFF797FF002808DB17
:10109000112822D0122825D0102819D124B96FF098
:1010A000020051B0BDE8F08F0DEB040303220221D2
:1010B00013F801BC2846FFF769FF22185245EED805
:1010C00000236C44984206D004F803B00133F9E7DA
:1010D000621C0DF804001446BAE7032211464FF0D3
:1010E000000BE7E70B220721F9E700BF2C580008A7
:1010F00070B5064605250020013D00D170BD040AEB
:101100003046FFF719FF44EA0060F5E770B5064680
:1011100005250020013D00D170BD04023046FFF7D7
:101120000BFF2043F6E7002310B54FF0FF3480F8A3
:1011300025300361C362846203640363C0E90E1255
:1011400010BD00002DE9F0470446A54DA54EA64F61
:10115000A36A013340F094802046FFF706FF002287
:10116000E06202212046FFF711FF0128A0627BD137
:10117000002304F16402A4F84430A4F84630A4F833
:101180004830A4F84A30A4F84C30A4F84E30A4F803
:1011900050301823A4F852309823A4F85430702308
:1011A000A4F856304FF4807322F8023B01339BB20F
:1011B000B3F58C7FF8D104F19402002322F8023BAE
:1011C0000133902BFAD14FF48C72A4F8B42140F281
:1011D0001912A4F8B6214FF48D72A4F8B82140F288
:1011E0001B12A4F8BA214FF48E72A4F8BC2140F26D
:1011F0001D12A4F8BE214FF48F72A4F8C02140F252
:101200001F12A4F8C22104F5E27222F8023B013356
:101210009BB2B3F5807FF8D120220023A4F8AE2240
:1012200004F53172A4F8A432A4F8A632A4F8A832C6
:10123000A4F8AA32A4F8AC3222F8023B0133202BE6
:10124000FAD1236B002B40F0AD8004F1440120461D
:10125000FFF7B3FE94F82530C3B9FF285ADCA36921
:10126000C0B25A1CA26141E0022809D104F52972DA
:1012700004F144012046FFF7BFFE002840F0AA8099
:10128000A36A002B05D001DB022BDADD6FF0020030
:10129000A0E0D4F830A0BAF1000F1CD12046FFF72F
:1012A0004BFE81462046FFF747FE09EB002920460A
:1012B000FFF742FE80462046FFF73EFE08EB002087
:1012C00080F47F4080F0FF008145DFD109F1010308
:1012D000C4F810A02363236B013B2363002B74D05D
:1012E0002046FFF729FEA3695A1CA2611870A26B61
:1012F0004AB1236C591C2164D054D4E90F329A426C
:1013000001D100232364D4E906239A42FFF420AFDD
:1013100000205FE0B0F5807F57D06FF480731844F1
:101320001C28B3DC35F81020315C2046FFF72EFE78
:1013300004F5297120632046FFF73FFE1D28A5DC38
:101340002A4B37F81020195C2046FFF71FFEA36BCD
:10135000002B32D0E16B88423ED8226C101A1FD489
:10136000A2696063511CA1611B5C1370A36B5BB12C
:10137000226C616B501C2064595C9954D4E90F3283
:101380009A4204BF00232364636BE26B01339342F0
:10139000636301D100236363236B013B2363B2E7E3
:1013A00008446063A36BA269606B002BDAD1135C05
:1013B0001370A3690133A361EEE7D4E905239B1AF7
:1013C00098423FF663AF4042EBE7E36A002B3FF4FD
:1013D000C3AE0120BDE8F0876FF00400FAE700BF5C
:1013E0009A580008D6580008405800087C58000851
:1013F00070B504468569FFF7A5FE061E0DDB94F85F
:101400002430012B0BD0022B11D0012E05D194F8E2
:101410002430012B12D0022B19D0304670BDA169A7
:101420002846226A491BFFF7E3FC2062EDE7A16929
:101430002846226A491BFFF7C1FCF6E72046FFF762
:1014400065FE236A8342E8D06FF00306E5E7204695
:10145000FFF74EFE236ADB438342F5D12046FFF7B8
:1014600047FEDAE738B505460C4614F1FF3400D2E2
:1014700038BD2846FFF760FDF7E738B50546FFF7AA
:101480005BFD04462846FFF757FD44EA002080B282
:1014900038BD38B50446FFF74FFD1F2802D06FF066
:1014A000020038BD2046FFF747FD8B28F7D12046C4
:1014B000FFF742FD0828F2D12046FFF73DFD10F06E
:1014C000E00F0546EBD120460621FFF7CBFF68076A
:1014D00006D52046FFF7D1FF01462046FFF7C2FFA1
:1014E000290704D52046FFF727FD0028FAD1EA0690
:1014F00004D52046FFF720FD0028FAD1AB0702D51E
:101500002046FFF7BAFF0223002084F824304FF072
:10151000FF332362C5E70000BFF34F8F0549064B39
:10152000CA6802F4E0621343CB60BFF34F8F00BF81
:10153000FDE700BF00ED00E00400FA052DE9F04FE3
:101540000022C9B04B78043111F8044C1B0443EA63
:10155000046311F8014C234311F8024C43EA0423BD
:1015600008ACA3500432402AECD1234638AD996B25
:101570001E4653F8044F4FEAF1429D4282EA7142FF
:1015800082EA9122716A366831440A444FEAB441D2
:1015900081EAF41181EAD4010A44DA63E7D1036DE8
:1015A0000027DFF8D0900093436D009C0193836D7A
:1015B0000293C36D0393036E0493436E0593836E8E
:1015C0000693C36EDDE905EC9B460793DDE90381D5
:1015D000DDE901654FEAF12383EAB11383EA716A19
:1015E00059F827301A4608AB53F8273001371A4408
:1015F000402F13462CEA0102534401EA0E0A82EA04
:101600000A024FEA743A1A4486EA05038AEAB40ADF
:101610005A4403EA040306EA050B8AEAB45A83EA49
:101620000B03E3469A4402EB0803A84652441AD13E
:10163000009F1744019A224407654265029A32448A
:101640008265039A2A44C265049A1A44059B0B4496
:1016500002664366069B73448366079B6344C366C6
:1016600049B0BDE8F08FF44635468E462646194609
:101670001446AFE730590008122301480B80704729
:10168000F8580008002070471B2301480B80704762
:1016900000000020002008807047000030B420F0D7
:1016A0000204042C08D10C4B02221A7000225A703A
:1016B0009A70DA7030BC70470128FBD1064C0AB929
:1016C0006070F7E70820A180E2801946607004F19D
:1016D0000C0030BCFEF784BD781B0020D0F8180247
:1016E00008B5B0F82C2200F50C73B0F82A1290F867
:1016F0002802FFF7D3FF002008BD00207047C1F388
:10170000031201F00F01D3B2092AD4BF30333733AB
:1017100009290370CBB2D4BF3033373343707047DD
:1017200010B5D0F8184286B004F59254043411294B
:1017300050D8DFE801F0090F1417464F4F4F4F4FB5
:101740004F4F4F4F4F4F494C0423234C138020469B
:1017500006B010BD2146214803F0BEFDF7E7214643
:101760001F48F9E71F4B02A801921978FFF7C7FF3E
:101770001D4B0DF10A001978083B1B781944FFF73F
:10178000BEFF1A4B03A81978FFF7B9FF184B0DF1EC
:101790000E001978083B1B781944FFF7B0FF154B72
:1017A00004A81978FFF7ABFF134B0DF1120019785D
:1017B000FFF7A5FF0023019A21468DF8143002A8F7
:1017C000CAE721460D48C7E721460D48C4E7214630
:1017D0000C48C1E70024BAE7F4580008305A000862
:1017E0003C5A00081B7AF01F1A7AF01F197AF01F72
:1017F000187AF01F177AF01F167AF01F485A00085F
:10180000A85A0008BE5A0008002300220D490364AC
:101810000023DFF848C0C0E912230B4B0B4AC0E994
:1018200014230B4BC0E916130A4BC0E918C30A4B2B
:10183000836603F17453A3F52303A3F69243C366AF
:10184000704700BF72F36E3C85AE67BB67E6096AFE
:101850003AF54FA58C68059BABD9831F7F520E517B
:10186000F8B504460D468E180027B54200D1F8BDE4
:10187000236C15F8012BE2540133402B2364F4D17F
:1018800021462046FFF75AFE2764D4E9120110F5DD
:10189000007241F10003C4E91223E6E7026C2DE96E
:1018A0003048372A0D464FF0800102F1010304460B
:1018B00081544FF0000251D8382B4AD1236C204676
:1018C000D900D4E9122312EB010B43F1000C4FEACB
:1018D0001B624FEA1B2184F83FB084F83C204FEA9A
:1018E0001C224FEA1C6384F83E1084F83A204FEA29
:1018F0001B414FEA1C4284F8383084F83D102146E1
:1019000084F83BC084F83920C4E912BCFFF716FE06
:10191000691E1823226DDA4001F8012F626DDA404A
:101920000A71A26DDA400A72E26DDA400A73226E21
:10193000DA400A74626EDA400A75A26EDA400A76FC
:10194000E26EDA40083B13F1080F0A77E2D1BDE8F6
:101950003088E2540133AFE7E25401333F2BFBD927
:1019600021462046FFF7EAFD38220021FEF75FFC02
:10197000A4E700687047000082B0EFF31083C3B99A
:10198000431E03330C4B98BF013019681A68521A72
:10199000824201D302B0704730BFF7E70191019A4C
:1019A0000132B2F5FA6F0192F9D901338342F5D1D0
:1019B000F0E700231946F9E738030020014B1868C7
:1019C000704700BF38030020FFF7D6BF0C4B4FF421
:1019D0007A721B68B3FBF2F3013BB3F1807F09D24B
:1019E000084AF0215360084B83F8231000239360CA
:1019F00007231360044B002283F82320704700BFA5
:101A00001C00002010E000E000ED00E0354B07B5C1
:101A10001A6C42F080521A641A6C02F080520092E2
:101A2000009A314A116841F440411160126802F491
:101A300040420192019A1A6842F480321A601A6890
:101A40009203FCD51A6822F080721A60254B194661
:101A50001A689001FCD4254A5A601A6842F08072D4
:101A60001A600B689A01FCD5214A13681B0705D13F
:101A7000136823F00F0343F001031360194B9A68B6
:101A800022F0F0029A609A6822F0030242F0020209
:101A90009A609A6802F00C02082AFAD1144A136874
:101AA00003F00F03012B05D9136823F00F0343F054
:101AB000010313600B480F4A836823F4E05343F497
:101AC000A0538360836823F4604343F4004383603E
:101AD000094B1A60FFF77AFF0023C0F8903003B07B
:101AE0005DF804FB003802400070004019304104EA
:101AF000003C0240006CDC021C000020014B186816
:101B0000704700BF1C0000202DE9F34120F00F04B6
:101B1000264E4FF0010801F0030E04F13F45376BEC
:101B2000890805F57E05AD0A08FA05F53D433563DC
:101B3000356B00F00F0600F00700019506FA08F774
:101B4000019D0325D4F800C00EFA07FEBD4008FA37
:101B500006F8B140BA40ED43F60880000CEA050CE7
:101B600083404EEA0C0EC4F800E0D4F804C02CEA1E
:101B7000080C4CEA01014FF0020C61600CFA07FC02
:101B8000A168294041EA0C01A160E1680D400F21E4
:101B900015438140E56004EB8604226A22EA0102D3
:101BA0001343236202B0BDE8F08100BF0038024059
:101BB00010B520F00F0400F00F0003224000A368CE
:101BC0008240814023EA02031943A16010BD000056
:101BD00008B5002301210A481A46FFF795FF0023A4
:101BE000012108481A46FFF78FFF0023012106480C
:101BF0001A46FFF789FF054B00221A7008BD00BF87
:101C00000B2002400A200240092002402C03002041
:101C100000F00F0220F00F0021B14FF48033934009
:101C2000836170470123FAE710B5044600F0010113
:101C30000648FFF7EDFF04F002010548FFF7E8FF53
:101C400004F004010348FFF7E3FF10BD0B2002403E
:101C50000A2002400920024008B500200E4CFFF780
:101C6000E3FF3220FFF788FE237823B1201D03F025
:101C7000C6F800232370094B00221A604FF000427F
:101C8000074BC3F88020BFF34F8FBFF36F8F322015
:101C9000FFF772FEFFF740FC842300200054004051
:101CA00000E100E008B50128034B0146187002D896
:101CB0000248FFF7ADFF08BD2C0300200B200240B7
:101CC00008B50F4B1978D1B10E4B0F481A6803684D
:101CD000D21A322A13D932330360C1F384000B4B7A
:101CE0001A68013282420A48A8BF00221A601B68A3
:101CF000002B0CBF012302231940FFF789FF08BD09
:101D00002C0300203803002030030020340300207F
:101D10000B200240F7B5044601200E46FFF7C2FF34
:101D200004F100452E4B9D4217D804F500342D4F89
:101D3000346005F50036B54206D100245120FFF786
:101D4000B1FF204603B0F0BD2946384601F0E7F95F
:101D5000044658BB05F58055EDE704F1E0459D428A
:101D600010D804F50034204F346005F50036B54234
:101D7000E3D02946384601F0D2F90446B0B905F55A
:101D80008055F4E700236A4601A92046CDE90033D7
:101D900001F02CFA00280BDC4FF00802134B4FF037
:101DA000FF349A7014BF11221022DA705220C6E755
:101DB000DDE9001043188908336001F05BFA04463E
:101DC0000028F3D1019B03F580721968013103D11A
:101DD00004339A42F9D1B1E76FF00104E6E700BF9E
:101DE000FFFF7F00501B0020441B0020781B0020B9
:101DF00070B50D460D4C09210D4E1346217000F1B2
:101E00000041B14206D82A460A4801F097F9512309
:101E1000237070BD00F1E0412A46B14201D8064866
:101E2000F3E701461846FEF7DBF9F0E72C03002044
:101E3000FFFF7F00501B0020441B0020F8B50B461D
:101E40004E78D0F8184284F828624988DD88A4F8D2
:101E50002A12A4F82C521B78212B0DD135B92B4610
:101E60002A463046FFF71AFC0020F8BD2A4604F542
:101E70000C7103F062FAF7E7A12BF5D1022E04F5FD
:101E8000236714D10129EFDD1F4B0722881E294645
:101E90005A703A469B6803EBC020FFF7A9FF012365
:101EA0002A463946201D637003F032FADCE7032E20
:101EB00021D1062DD8D1144A5378012B04D005D353
:101EC000072B16D1092300E00723137093781178AC
:101ED00084F8303A002384F8341AD17884F8313AFF
:101EE00084F8323A84F8333A84F8351A9370D37010
:101EF000D5E70423E9E7052EB6D1012DB4D1024B75
:101F00001B7884F8303ACAE7781B002070B5234B61
:101F10000D46092104461646197000F10041204B78
:101F200099420CD82B461F4801F01CF900280446A2
:101F300014BF52205120FFF7B5FE204670BD00F1BE
:101F4000E041994202D82B461748EDE701F046F9E7
:101F5000F8B100222046114601F048F900280CDCB7
:101F6000124B4FF008029A7001D0112200E01022AB
:101F7000DA704FF0FF345220DDE7F21C204629468C
:101F8000920801F0A9F90446002814BF52205120FC
:101F9000D1E7064B08229A70E7E700BF2C03002028
:101FA000FFFF7F00501B0020441B0020781B0020F7
:101FB00037B50023D0F81822224C53702278072A14
:101FC00001D1FFF749FE042A14D16278082A11D101
:101FD000A588637055BBE38883B1227B412A1BD15E
:101FE000012B0DD14FF4F031174801F043F920B91E
:101FF00005232370002003B030BD65700A23F8E785
:10200000052BFBD104F10D00FFF7B3FC01A9FFF78D
:1020100081FE0028F2D1EBE7212AEFD1052BEDD18B
:1020200004F10D00FFF7A5FCA060E2E7012DE5D962
:10203000023DA068E28804F10C0100EBC520FFF727
:1020400065FFE6E7781B00200080000837B5124BDB
:102050000024054606211C70224604230F48FFF782
:1020600053FD2246042306210D48FFF74DFD0D4B7D
:1020700029460D481A6C42F400121A641B6C019335
:10208000019B01F04AF9094B102283F81F234FF0FE
:1020900000421A6003B030BD98020020071C0240C5
:1020A000081C0240003802400054004000E100E0FB
:1020B000034B0022597801B11A701A820020704730
:1020C00098020020064B1A8A802A06D81A8A92B2F1
:1020D000501C80B21882134499740020704700BFCE
:1020E0009802002073B56D4D2B8A9BB28BB3AB7CED
:1020F0002C8A012BA4B227D0022B04F1FF362AD15F
:10210000002E40F0C780664B05F11E0203CBC5F8D8
:102110001610C5F812001868624BC5F81A0003F1D2
:102120000C0153F8040B8B4242F8040BF9D11B78D5
:1021300013705D4B5D4A03F1180153F8040B8B4299
:1021400042F8040BF9D1312401236C602B70002379
:102150006B7002B070BD042B04D1002E40F09A8049
:10216000FFF77AFD062B0AD1002E40F093805F2204
:102170004F4905F112005F24FEF732F8E4E7072B20
:1021800009D1002E40F086804FF4F031494801F02B
:1021900071F80446D8E7082B09D1042E7AD105F14D
:1021A0001300FFF7E6FB01A9FFF7B4FDF1E7092BE8
:1021B00008D1042E6ED105F11300FFF7DAFBA860F9
:1021C0000024C1E70A2B06D1042E63D13A48FFF759
:1021D000D0FBE860F4E70B2B0ED1012E5AD1EC7C3A
:1021E000A868812C354AA8BF81242146FFF700FE4C
:1021F000AB682344AB60A7E70C2B12D12D4BEA68E8
:102200002D499A42E868324602BFEB7C43F0030353
:10221000EB74FFF77BFE041E96DBEB681E44EE605A
:10222000CEE70E2B16D1042E34D12348FFF7A1FBA5
:1022300004462348FFF7E8FA2246A9682048FFF73A
:102240000FFBA8681D4920442024A8601C48FFF704
:1022500025FB79E70F2B1DD1E6B9164E336803F045
:102260000302032A13D123F0030302A904223046F8
:1022700041F8043DFFF74AFE041EFFF665AF3368E0
:1022800013F0030F14BF6FF0010400245CE74FF05C
:10229000FF3459E76FF07E0456E700BF9802002034
:1022A000107AF01F0A59000817590008C3020020CD
:1022B000485A000800800008AB020020AA02002053
:1022C000280200200A4B1A7802F0FF0022B10122F6
:1022D0005A705868C0B270471A8A802A06D81A8A7B
:1022E00092B2511C89B219821344987C704700BF86
:1022F0009802002070470000834B4FF00062834932
:102300002DE9F0419A6005465A6942F400725A611B
:102310000A6842F400720A60D9687D4A21F4E061DB
:102320000904090C0A43DA6001F014FB25F0FF02EE
:10233000784B9A4251D00023774F012277481946B3
:10234000FFF7E2FB3C69C4F340345CB1744B0124F9
:102350001B68980741D183F30888724B20461B689D
:1023600098473AE0264647F22148FFF72FFBFFF750
:102370002FFCF2060AD10134052CA8BF0124601EEF
:10238000800048FA00F0C0B2FFF74EFC3B699B04A6
:1023900006D401361320FFF7EFFAB6F5846FE8D1C3
:1023A000661E0627B30047F221461E41F6B2002002
:1023B000FFF73AFC3220FFF7DFFA3046FFF734FC34
:1023C0003220FFF7D9FA013FF1D14FF49670FFF7B1
:1023D000D3FA534B042C1B68BBD1FFF7F9FBFFF773
:1023E00015FB5148514B036000F04DFE504B5148D6
:1023F000036000F048FE25F07F024F4B9A420ED159
:1024000001214E4800F0DEF820B110F8013C0BB974
:1024100000F0ECF80020FFF707FCFFF77DF8484BD1
:102420000222002447481A704FF000625C70214677
:102430009A6001229C70DC702346FFF765FB2346FF
:10244000012221464048FFF75FFB334B1A69110513
:1024500004D41C6984F48054C4F300340023394844
:102460001A461946FFF750FB002337481A4619460B
:10247000FFF74AFB002C44D1234601222146334872
:10248000FFF742FB2346012221463148FFF73CFB80
:10249000304B1A69520400D41B6900232B481A469A
:1024A0001946FFF731FB002329481A461946FFF762
:1024B0002BFB0123284C00260127284A2371314693
:1024C000274B201D84F80072C4F81432254BC4F841
:1024D0001C42C4F818322670667001F087F9201D7E
:1024E00001F0EAF915F07F00277008BF2320FFF7FD
:1024F000ADFD3046FFF798FB1B4B51221A7030BFE1
:10250000FDE70023D6E700BF00ED00E0003C0240FD
:102510000003FA050000AD70000002400D0002400B
:102520000080000804800008501B0020945B000815
:10253000805B0008441B00208000AD7000800120FB
:10254000781B00200B0002400C0002400E040240E9
:102550000F0402400004024084230020145B0008A2
:102560000C5B0008D45A00082C030020704708B503
:10257000FEF7D2FF08B5FEF7CFFF08B5FEF7CCFF98
:102580007047704770470000034A136801331360B7
:10259000024B1B68FFF794BB3803002010E000E0FB
:1025A000014800F0C8BE00BF00540040014801F0DF
:1025B00065BC00BF44130020014801F05FBC00BFB0
:1025C0004417002010B5084C437802330344A3425B
:1025D00001D9002003E002788A4201D1023010BD07
:1025E000012AF6D01846EFE7008401202DE9F04FCC
:1025F0000321ADF27C5D8648FFF7E4FF002800F080
:10260000038110F8014C012C40F2FE80013C014690
:1026100008A8E4B211F8015B2246FDF7E1FD0023B2
:1026200008AA7B4813550221FFF7CCFF0446002877
:1026300000F0EA8010F8013C0A2B40F0E5800378B6
:10264000AB4240F0DF800230FFF793F90546A01D52
:10265000FFF78FF963780246012B40F0D5802946B9
:10266000C8A800F079F9064628BB8146DFF8A4B176
:102670000220FFF7D9FADBF8003008A9C8A898476C
:10268000064678B9DBF80810C8A800F0E3F806465B
:1026900040B948AC0B20214600F000F90B2824D0AB
:1026A0004FF0FF365B4BC8A85B6898471EB9042003
:1026B000B9F1000F16D00424002E40F0A1800720AD
:1026C000FFF7B2FA6420FFF757F90020FFF7ACFAE2
:1026D0006420FFF751F9013CEED130460DF27C5DEC
:1026E000BDE8F08F4FF00109C3E706224A492046B2
:1026F000FDF7BDFD0028D3D1A37A012B7DD10DF5C7
:102700009370FFF736F9214602904FF4897000F07C
:10271000C5F8B0F5897FC3D1072240492046FDF7AF
:10272000A6FD05460028BBD10DF22A2040F21D1A55
:10273000FFF71FF903900DF22E20FFF71AF904900E
:10274000049BAB4212D16FF48E73039A53449A42A6
:10275000A6D1029B5345A3D12146102000F09EF83C
:10276000B0F1100618BF4FF0FF369BE72146082056
:1027700000F094F8082893D12046FFF7FAF80746AE
:1027800049A8FFF7F6F80190B9F1000F08D00DF154
:102790001C083B18C8F80070D8F80000984201D314
:1027A000019E23E041460593FFF7B4FA059B0646D8
:1027B0000028F1D076E7B6F5007FB04648A928BFDB
:1027C0004FF40078404600F069F880457FF468AF28
:1027D000B9F1000F08D0424648A93846FFF796FBEA
:1027E00000287FF45DAF4744A6EB0806002EE2D137
:1027F000019E01350836B244A2E76FF0010651E7A9
:1028000001205DE70A300EE74FF0FF3665E700BFB5
:1028100000800120345B00082D5B0008255B000868
:1028200070B50B4D06464FF40072A5F20C542946C4
:102830006368206898470028C5BF40196B1C4FF09B
:10284000FF303360C4BF706094F80C0570BD00BFEA
:10285000D43B002038B50F4C40F20452C4E90001CB
:10286000002104F10800FDF7E2FC0B4B04F1080025
:102870002361FEF70EFE054648B94FF4004204F20C
:102880000C7104F10800FEF74EFC284638BD4FF0ED
:10289000FF35FAE7C83600202128000838B508447B
:1028A000084C0D46606204F108002162FEF7A0FDAD
:1028B000012804D0002801DB206A401B38BD00201D
:1028C000FCE700BFC836002007B500F50E7001AB6D
:1028D000FEF771F918B9019803B05DF804FB4FF0E9
:1028E000FF30F9E700F50E70FEF7E4B908B50A46C7
:1028F000012300F50E710830FEF720F9003018BFF3
:102900000120404208BD10B514464268B4EB522F76
:1029100008D200680A46590200EB4420FFF768FA23
:10292000002010BD0420FCE7062905D8DFE801F0EF
:102930000D060A0F041111000420704743685B0A5A
:10294000136002E04FF400731380002070470123EE
:10295000F6E704231370F8E708B5C0E900128060B9
:102960000830FEF7E7F8003018BF0120404208BDEC
:102970008368CA0710B548BF012203F00F0458BF8F
:102980004FF4803223F00F03A2409A618A07C36894
:102990004CBF01224FF4803203F00F0423F00F03E9
:1029A000A2409A614A0703694CBF01224FF480326A
:1029B00003F00F0423F00F03A2409A610A07436952
:1029C0004CBF01224FF4803203F00F0023F00F03BD
:1029D00082409A6110BD2DE9F04F1E4689B0002358
:1029E00004460291154619461A46C068FFF78CF84E
:1029F00000230121A0681A46FFF786F86369DBB15E
:102A000020694FF0010800F00F0320F00F0241464B
:102A100008FA03F3936100231A46FFF775F860691B
:102A2000414600F00F0320F00F0208FA03F3936110
:102A300000231A46FFF768F8002D74D14FF0010EFD
:102A40004FF48038029B9D4266D062684FF0080CBC
:102A5000E068002302F00F0122F00F0220F00F09BE
:102A600000F00F000EFA01FA08FA01F1C2F818A0FE
:102A70005B00D9F810B0BCF1010CDBB291612BFA0C
:102A800000FB0BF0010B43EA0B03EFD106B17355CA
:102A90000135D7E760684FF00808D4F80CC000F0A3
:102AA0000F0320F00F00A95C019009FA03F00AFA65
:102AB00003F304902CF00F000793A36805900CF02B
:102AC0000F0003F00F0E23F00F0C06900AFA0EF31E
:102AD00009FA0EFE03930023C80920D0CCF818E0B1
:102AE0005B000498019F49005FFA83FB059BB86176
:102AF000B8F101081B69C9B2069823FA00F30798D8
:102B000003F00103B8614BEA0303E5D106B1B35406
:102B10000132029B9A42BDD109B0BDE8F08F039803
:102B2000CCF81800DCE700224FF001094FF4803A9E
:102B3000EFE773B502AB4FF48034054643F8041D4C
:102B4000016821F00F0601F00F0104FA01F1B161F3
:102B5000511C1A46FFF73FFF2B680122019823F012
:102B60000F0103F00F03000A02FA03F38B6102B0B6
:102B700070BD73B541EA032302AC4FF480310546C2
:102B800044F8043D036823F00F0603F00F0301FA35
:102B900003F3511C2246B3610023FFF71CFF2B688F
:102BA000012223F00F0103F00F0302FA03F38B61FC
:102BB00002B070BD2DE9F04F85B012F07F4F044692
:102BC000C2F3074001930DF108084FF000038DF8A0
:102BD00008100E9FC2F30721C8F80330D3B200F0EB
:102BE0008180120E4FF0040A8DF80A008DF809203A
:102BF0008DF80B108DF80C3023684FF4803220468E
:102C0000C14623F00F0103F00F034FF4006B02FAEB
:102C100003F342468B6100230121FFF7DCFE0AF13A
:102C200003030121206900930023DFF8E8A01A467E
:102C3000FEF76AFF0023012160691A465546FEF738
:102C400063FF00230121A0681A46FEF75DFF002301
:102C50000121E0681A46FEF757FF19F8011F4FF0EF
:102C6000006620460909FFF783FECAF818B020461F
:102C7000CAF8186099F80010FFF77AFEA9EB08016E
:102C8000009BCAF818B08B42CAF81860E5D8002338
:102C900020691A461946FEF737FF002360691A4675
:102CA0001946FEF731FF0023A0681A461946FEF7C1
:102CB0002BFF0023E06819461A46FEF725FF019B0B
:102CC0004FF400613B4499464F4514D123680122DB
:102CD00023F00F0103F00F0302FA03F38B6105B039
:102CE000BDE8F08F8DF809004FF0030A8DF80A1047
:102CF0008DF80B3080E7A9612B69AE61A961DB0912
:102D00002A69C2F3C31242EA031207F8012BAE612B
:102D1000DAE700BF0010024070B506460C460029F5
:102D200041D10068012500F00F0320F00F0205FAE1
:102D300003F393610B460A462946FEF7E5FE7068E9
:102D40004FF4803300F00F0120F00F028B40294632
:102D5000936123462246FEF7D7FE234622462946A4
:102D6000B068FEF7D1FE234622462146F068FEF702
:102D7000CBFE3069294600F00F0320F00F0205FA60
:102D800003F3936123462246FEF7BEFE706929468F
:102D900000F00F0320F00F0205FA03F393612346BE
:102DA0002246FEF7B1FE002070BD37B512F07F4F0E
:102DB0001D464FF0000304468DF80010C2F3074093
:102DC0008DF80430C2F30721D3B22AD0120E8DF849
:102DD000031004218DF802008DF801208DF80430D5
:102DE00023684FF48032013123F00F0003F00F030A
:102DF00002FA03F36A46836120460023FFF7EBFDE6
:102E0000069A294600232046FFF7E5FD23680122A4
:102E100023F00F0103F00F0302FA03F38B6103B0F9
:102E200030BD8DF8021003218DF801008DF80330BC
:102E3000D6E703681A68012A04D19A680221586803
:102E400012681047704703681A68012A04D19A680B
:102E50000321586812681047704773B504688DF8ED
:102E600007102168D4E90105D9B900F00F034FF428
:102E7000803220F00F06284602FA03F30DF1070214
:102E8000B361E3685E680B460121B04763680122C5
:102E900023F00F0103F00F0302FA03F38B6102B07A
:102EA00070BD6C689DF80710A047F8E72DE9FF4159
:102EB0000468154698462068D4F808C0DDE90A760B
:102EC00000284CD115F07F4F8DF808108DF80C00BC
:102ED000C2F30741EBB2C2F3072231D02D0E8DF8B9
:102EE0000A1004218DF80B208DF809508DF80C3054
:102EF00063684FF48032013123F00F0003F00F03B9
:102F000002FA03F302AA83616046E3685D68002366
:102F1000A847B8F1000F07D0D7B1E3683A465D681B
:102F200000234146A068A8476368012223F00F01EF
:102F300003F00F0302FA03F38B6104B0BDE8F081E4
:102F40008DF8091003218DF80A208DF80B30CFE79A
:102F5000002EE9D0E36832465D683346E1E76068F9
:102F600026B10096DCF81040A047E6E70097DCF8B1
:102F70000840F9E737B505680C4601F07F412D6838
:102F800065B900290CBF032113210193002300938D
:102F900013462246FFF78AFF03B030BD00290CBF5D
:102FA000EB21EC21F1E700231A46FFF756BF7FB56E
:102FB00004688DF807102368D4E9010513BB00F0FD
:102FC0000F024FF4803120F00F06284601FA02F27A
:102FD0000121B261E26856680DF10702B047E3686B
:102FE0000121A0685D6803AB1A46A8476368012207
:102FF000039823F00F0103F00F0302FA03F38B6130
:1030000004B070BDEB6801229DF807109847F7E700
:10301000F8B505460E461746074C05212846FFF72A
:10302000C6FF3040B84204D0013CF6D16FF06D00CD
:10303000F8BD0020FCE700BF41420F000022012143
:10304000FFF7E6BF37B50D4606210446FFF7ABFF95
:10305000022220461146FFF7DBFF034688B915F030
:103060007F4F2A46CDE9000018BF2121204608BF26
:103070002021FFF71BFF204603B0BDE83040FFF7DB
:10308000DDBF03B030BDF8B50021036804464160E0
:10309000D3E90050002D3ED100F00F03012120F0B4
:1030A0000F0201FA03F393612B462A46FEF72CFD2B
:1030B00023682946DA689868126890472046FFF727
:1030C000B8FEAB212046FFF76EFF23681F68012F73
:1030D0001CD105212046FFF76AFF35210646204610
:1030E000FFF765FF0502F6B2ADB23543AB050DD46F
:1030F00006212046FFF757FF204645F400730222C1
:103100003946FFF7AAFE2046FFF798FF2046BDE8A4
:10311000F840FFF798BE9B681B689847CEE738B524
:1031200004460D46FFF785FE29462046FFF78AFF35
:1031300005462046FFF787FE284638BDF8B5044609
:103140000E461F46154662B1FFF773FE20463B460A
:103150002A463146FFF70EFF2046BDE8F840FFF74C
:1031600072BEF8BD2DE9F3470F464FF00009054642
:103170001646FCB29846FFF75CFE3EB9B2462846BA
:10318000FFF761FE504602B0BDE8F08706212846F1
:10319000FFF709FF022228461146FFF739FF824652
:1031A0000028ECD117F07F4FC4F580743A462846CA
:1031B00014BF12210221B44228BF3446CDE9008950
:1031C0002346FFF773FE2846FFF738FF82460028A4
:1031D000D5D1361B2744A0440446CEE700F1784001
:1031E000B0F5002F2CBF002001207047B0F1006F18
:1031F000F0B536D30025042D2B460BD00135AC039A
:1032000004F10064A042F6D21C464FF480404FF017
:1032100000651EE00023144C1F1D4BB9A0424FF067
:103220000103F9D83B4600244FF480300F4D10E0E5
:103230000026032E344606EB070312D00136750430
:1032400005F1006505F50035A842F2D24FF40030D3
:10325000074D11B104FB00540C6002B11060184618
:10326000F0BD4FF0FF30FBE7FFFF01080000010851
:103270000000020870B5064686B00C4639B300F06F
:103280004BFC144BF32200253046DA6002232A4619
:10329000294605930295FFF7A9FF0390701E00EBE6
:1032A0008400FFF7A3FF039B06A9C3F1010341F8C4
:1032B000145D034402A8049300F0F4FC044600F0FB
:1032C0003DFC641B18BF0124604206B070BD084677
:1032D000FBE700BF003C02402DE9F04107460C46E9
:1032E000002690463F1B00F017FC464507EB040103
:1032F00008D1002500F022FC281C18BF0120404204
:10330000BDE8F08154F8042B0023022000F04CFCAF
:1033100005460028EED10136E7E72E234900036079
:1033200041F40041002343608160C360036843F0BF
:1033300001030360704738B5856904462B0708D53B
:10334000012383610823C3618169C1F30041FEF752
:10335000AFFEA80703D52046FEF7B4FFA0626907B9
:1033600004D5616A2046C9B2FEF7ACFEAA060FD5A5
:1033700020232046E361A36823F40043A360A369EC
:10338000DB0306D5FEF7B6FFA36843F40043A36052
:1033900038BDFEF7A7FEF7E710B50A480224C4605F
:1033A00042B941F48071416183689B07FCD50223D7
:1033B000C36010BD013A41F001210261024A41613E
:1033C0001380F1E7001000A0201000A070B512F0EB
:1033D0007F4F4FF002051448049CC56014BF4FF4A2
:1033E00040554FF400555BB941F4A0612943416158
:1033F00082610D4B9A689207FCD50222DA6070BD9B
:1034000041F080715E1E234441F4A06106612943AE
:1034100041618261054A81684907FCD514F8011BA6
:10342000A3421170F7D1E4E7001000A0201000A023
:1034300041F0A061074B0220013A41F48071D8604D
:103440001A6159619A689207FCD50222DA60186AFB
:10345000704700BF001000A030B51E4C0225039835
:1034600012F07F4FE56041F0E26103F1FF3541F476
:103470004D41256114BF4FF440554FF400550D43A5
:10348000002165618507E161A26118D00344114AFA
:103490001149984216D10223D36030BDA168490773
:1034A000FCD5216A42F8041BA91A0329F6D89A0808
:1034B0006FF0030100EB820001FB0233E6E70246F6
:1034C000C518F1E7946814F47C5FFBD00C7800F821
:1034D000014BDEE7001000A0201000A0EFF31082E7
:1034E00072B6084B012199604FF01041D96006492E
:1034F0001961BFF36F8FBFF34F8FBFF35F8F82F3FD
:103500001088704790ED00E03700001013B5304C84
:10351000FFF7E4FF0A23002220460221FEF7F4FA17
:103520002046043C0321FEF743FB092300222046EA
:103530000221FEF7E9FA204604F609040321FEF70A
:1035400037FB0923002220460221FEF7DDFA204640
:1035500001340321FEF72CFB09230022204602211F
:10356000FEF7D2FA204604F2F6340321FEF720FBE0
:103570000923002220460221FEF7C6FA2046032135
:10358000FEF716FB6FF47D73002202211C44092311
:103590002046FEF7B9FA03212046FEF709FB0D4B42
:1035A0009A6B42F002029A639A6B02F00202019255
:1035B000019A9A6942F002029A619A6922F0020223
:1035C0009A61054B054A1A60054A5A6002B010BD5F
:1035D0000604024000380240001000A0110300025F
:1035E00000011600114B0022DA61114A5A61EFF313
:1035F000108172B60F4B01220F489A604FF01042B3
:10360000DA601861022098600C48DA6018610320C3
:103610009860DA600A4A1A61BFF36F8FBFF34F8F69
:10362000BFF35F8F81F31088704700BF001000A0C8
:10363000EBED100F90ED00E037010010310F00109E
:103640002F010010022908B506D0032912D009B9AC
:10365000FFF75CFF002008BDFFF740FF074B9A68AB
:103660009106F7D51A6842F002021A601A689207AA
:10367000FCD4EFE7FFF7B6FFECE700BF001000A0B7
:103680001FB50368B3F1A04F30D10A2300220221F5
:103690002F48FEF739FA03212D48FEF789FA0A234D
:1036A000002202212B48FEF72FFA2A480321FEF7B9
:1036B0007FFA294B43205A6B42F080025A635A6BBF
:1036C00002F080020192019A5A6C42F480425A64DC
:1036D00060225B6C03F480430293029B1F4B83F8D0
:1036E000432305B05DF804EB00F07CB91C4A93421B
:1036F0002BD10C23002202211A48FEF705FA0321E0
:103700001848FEF755FA0C23002202211648FEF74E
:10371000FBF915480321FEF74BFA0F4B4D201A6DAC
:1037200022F080421A651A6D42F000521A651A6B37
:1037300042F000521A6360221B6B03F000530393A4
:10374000039B064B83F84D23CBE705B05DF804FBE4
:103750000B0002400C0002400038024000E100E093
:10376000000004400E0402400F04024000F56F7197
:10377000D0F8FC0301F061BB1C2303FB0103D0F86C
:10378000FC03D3F8042201F085BB1C2303FB0103D7
:10379000D0F8FC035A6C01F0AFBBC168003110B522
:1037A000044618BF0121D0F8FC0301F00AFCD4F84C
:1037B000FC03BDE8104001F0E5BBD0F8FC0301F0CC
:1037C00003BCD0F8FC0301F008BCD0F8FC0301F006
:1037D0000CBCD0F8FC0301F006BCD0F8FC0301F0EF
:1037E00006BCD0F8FC0301F004BC00002DE9F04158
:1037F000057880460F46164625BB2C4C4FF0A0405E
:103800000423C4F8FC83C8F820422562256325619F
:10381000E562C4E900034023204663610223C4E952
:103820000635E36000F08AFA31782046890000F01E
:10383000EFFEE9B201352046725D920000F0C9FE4C
:10384000062DF6D198F80030012B2CD1184C00250C
:1038500018490622AF42C4F8FC832046C8F820422B
:1038600018BF2B462563A562E5616563E562E360E9
:10387000C4E900124022C4E904520222C4E90855F6
:10388000A26100F05BFA16F8071F2046890000F0DD
:10389000BFFE16F8012FE9B201352046920000F074
:1038A00098FE092DF5D10020BDE8F08144130020D9
:1038B000441700200000044008B5D0F8200200F0B2
:1038C000AFFA002008BD08B5D0F8200200F0BDFA1C
:1038D000002008BD10B51C46D0F820021346224631
:1038E00000F0B2FD002010BD08B5D0F8200200F0B5
:1038F0001DFE002008BD08B5D0F8200200F043FEF0
:10390000002008BD11F0800FD0F820324FF01C02CB
:1039100017BF01F07F0102FB013102FB013191F879
:103920003A0008BF91F8FA01704708B5D0F82002B4
:1039300000F078FD002008BD08B5D0F8200200F0A6
:10394000D5FD002008BD08B5D0F8200200F0AAFD82
:10395000002008BD7047FEE70C4B00211A6842F0BA
:1039600001021A6099601A6822F0847222F480328F
:103970001A60074A5A601A6822F480221A604FF0CF
:103980000062D960034B9A60704700BF0038024064
:103990001030002400ED00E00446DFF830D00C4980
:1039A0000C4A0D4B03E051F8040B42F8040B9A4209
:1039B000F9D3002009490A4A01E041F8040B914279
:1039C000FBD3FFF7C9FF2046FEF796BC008001201D
:1039D000A85B00080000002020000020200000203C
:1039E000781B0020002808DB4209012300F01F009B
:1039F00003FA00F0014B43F82200704700E100E0B9
:103A0000094910B50C6924F440740C610C6944F444
:103A100040740C610C6944F001040C61C0E900239E
:103A2000BFF34F8F10BD00BF003C0240084B1A6926
:103A300022F440721A611A6942F400721A611A691A
:103A400042F001021A610160BFF34F8F704700BF5F
:103A5000003C0240084B1A6922F440721A611A694C
:103A600042F480721A611A6942F001021A610180FF
:103A7000BFF34F8F704700BF003C0240074B1A69ED
:103A800022F440721A611A691A611A6942F001023D
:103A90001A610170BFF34F8F704700BF003C0240B6
:103AA0001B4BDA68920704D51A498A6942F0200252
:103AB0008A61DB68DB0604D5164A936943F010037C
:103AC0009361134BDA68900604D512498A6942F073
:103AD00008028A61DB68590604D50E4A936943F0EF
:103AE000040393610A4BDA68120604D509498A690E
:103AF00042F002028A61DB68DB0504D5054A93695E
:103B000043F040039361024B4FF4F972DA6070475F
:103B1000003C02405C1B0020064B1A69002A06DAB2
:103B2000054A00205A6002F188325A60704701202D
:103B3000704700BF003C024023016745034A002054
:103B4000136943F000431361704700BF003C02401B
:103B5000134B002270B505469A61124CFDF72EFFFB
:103B60000646E368DB0307D4E26812F4F9720ED06C
:103B7000FFF796FF012003E06A1CF2D00DB9032085
:103B800070BDFDF71BFF801BA842EAD9F7E7E0688C
:103B900010F00100F4D001231046E360F0E700BF0D
:103BA0005C1B0020003C02402DE9F0411B4C984674
:103BB00007460D46237D1646012B2DD001234CF2DE
:103BC00050302375FFF7C4FF90B9032F07D8DFE803
:103BD00007F00213181DF1B22846FFF74FFF4CF211
:103BE0005030FFF7B5FF0E4A136923F0010313614C
:103BF00000232375BDE8F081B1B22846FFF72AFF04
:103C0000EDE731462846FFF711FFE8E73246434625
:103C10002846FFF7F5FEE2E70220EBE75C1B0020F9
:103C2000003C0240084B1A6922F440721A611A697A
:103C300042F004021A611A6942F4803242EA00201A
:103C40001861BFF34F8F7047003C024039B1012922
:103C500023D002290CBF4FF400714FF44071104B78
:103C60001A6922F440721A611A69114319611A69BA
:103C700022F0F8021A61782292FAA2F21969B2FAD5
:103C800082F2904041F00202104318611A6942F436
:103C900080321A61BFF34F8F70474FF48071DEE7B7
:103CA000003C02402DE9F843224E04468846337D0D
:103CB000012B3DD001234CF250303375FFF748FF04
:103CC000054698B94FF0FF33C8F800302368012B40
:103CD00011D1207BFFF7A6FF4CF25030FFF738FFE1
:103CE000154A0546136923F0040313610023337555
:103CF0002846BDE8F8836768DFF83C90D4E90123E3
:103D00001344BB42F2D9217B3846FFF79FFF4CF2A8
:103D10005030FFF71DFFD9F8103023F07A03C9F8AF
:103D2000103018B1C8F800700546DFE70137E5E745
:103D30000225DDE75C1B0020003C0240F0B5064692
:103D40008BB000286AD0032334466D46371D80F8B7
:103D5000B933FFF795FC54F8100B00F0CAFC0FCCF8
:103D60000FC50FCC0FC594E8030006F1100485E8D9
:103D7000030097E80E003068012500F079FC00216F
:103D8000306800F0BCFC002133463246084682F819
:103D90003810D187013182F839500F2982F83B0061
:103DA000D064C2E9100002F11C02F0D10022D6F862
:103DB00000C0114683F8F82102F14000DA87013291
:103DC0000CEB800083F8F9110F2A83F8FB11C3F87C
:103DD000001203F11C03C3F8E811C3F8F0114160AD
:103DE000E8D10FCC6D460FC50FCC0FC594E803008A
:103DF00085E80300604697E80E0000F0C1FC01234F
:103E000086F8B933736A012B02D1304600F004FC06
:103E1000306800F07BFF00200BB0F0BD0120FBE715
:103E200090F8B833012B10B504460CD0012380F86C
:103E3000B833006800F05EFF206800F054FC0020FA
:103E400084F8B80310BD0220FCE790F8B833012BCA
:103E500010B504460FD0012380F8B833006800F095
:103E600048FC206800F015FF206800F04FFF00209C
:103E700084F8B80310BD0220FCE770472DE9F04F2D
:103E8000066887B00446304600F07AFF03900028A9
:103E900040F04481206800F045FF002800F03E819A
:103EA000206800F03FFF850702D5236802225A618F
:103EB000206800F037FF10F400250BD020680025A3
:103EC00000F034FF06F5306807464FF0100B002F66
:103ED00040F02781206800F025FF41030BD52068C2
:103EE000274600F02BFF0025824606F51069BAF13F
:103EF000000F40F06481206800F014FF002814DAFD
:103F0000D6F8043823F00103C6F8043894F8EC33EB
:103F1000012B40F0DE810021204684F8EC1300F0F4
:103F20008EFB23684FF000425A61206800F0FAFED1
:103F300002050AD5D6F80838DB0702D52046FFF778
:103F40003CFC23684FF400625A61206800F0EAFEEE
:103F5000070113D54FF0006223685A6194F8EC23EF
:103F6000002A40F0BA815B6D01212046C3F3830330
:103F700084F8EC13C4F8F03300F061FB206800F023
:103F8000D1FEC00436D506F500677B681021206895
:103F900023F001037B6000F0C9FB616806F5106344
:103FA000FF220398814240F09C814FF0FF33BB61B8
:103FB000FB6943F00113FB61236B002B00F09A8136
:103FC000D7F8843043F00B03C7F884307B6C43F0A0
:103FD0000B037B64D6F8003804F56F72217C23F460
:103FE000FE632068C6F8003800F0E9FE23684FF44D
:103FF00080525A61206800F095FE81041CD520682B
:1040000000F0C2FE2068C36823F47053C36000F060
:104010005DFC002840F077814FF400732268E06077
:104020006361D36843F41053D3602046FFF7B5FBB8
:1040300023684FF400525A61206800F073FEC306F3
:104040002BD52268936923F010039361376AC7F375
:10405000434307F00F09022B40F0B68147F6F07397
:104060001F4215D04FF01C08C7F30A17304608FB53
:1040700009483A46D8F8041200F0CCFDD8F80432CA
:104080003B44C8F80432D8F810321F44C8F8107204
:104090002268936943F010039361206800F042FEA8
:1040A000070705D52046FFF7E8FE236808225A6176
:1040B000206800F037FEC60207D5E9B22046FFF7B8
:1040C00088FB23684FF480125A61206800F02AFEB2
:1040D000800207D5E9B22046FFF777FB23684FF44B
:1040E00000125A61206800F01DFE410006D52046EE
:1040F000FFF773FB23684FF080425A61206800F09D
:1041000011FE42070AD523685D686B0702D5204679
:10411000FFF767FB226853682B43536007B0BDE885
:10412000F08FF80748D55FFA85FA2068514600F00D
:104130000DFE10F0010F814626D0012308EB45113A
:104140008B602369012B0FD11C23096903FB0543F5
:10415000C1F31201D3F80002411AC3F81012D3F8C8
:1041600004120844C3F8040251462046FFF704FB3A
:104170002169012908D13DB9D4F80C3223B904F5DD
:104180006F72206800F01BFE19F0080F06D0204661
:10419000FFF7ECFA082208EB45139A6019F0100FAC
:1041A00003D008EB4513C3F808B019F0200F03D073
:1041B00008EB451320229A6001357F0887E61AF044
:1041C000010F00F081805FFA85FB2068594600F0FE
:1041D000C7FD10F0010F804621D00121D6F83438F8
:1041E00001222046A94023EA01035946C6F8343883
:1041F00009EB45139A602369934202BFD7E9102364
:104200009B187B64FFF7C1FA2169012907D135B9F1
:10421000E36C23B904F56F72206800F0D0FD18F04C
:10422000080F03D009EB451308229A6018F0100F0D
:1042300003D009EB451310229A6018F0400F03D009
:1042400009EB451340229A6018F0020F03D009EBE6
:10425000451302229A6018F0800F35D0236804932A
:1042600003F5106303EB45130593D7E91323B2EB72
:1042700003081ED03B6C984528BF9846059B9B6958
:1042800008F103029BB2B3EB920F0FD3237C5A4683
:10429000049800931FFA88F3796C00F0DBFB7B6CC9
:1042A00043447B643B6D43443B65DEE7B8F1000F5C
:1042B0000ADC049B012203F5006BAA40D3F83438D2
:1042C00023EA0203CBF8343001354FEA5A0A1C378F
:1042D0000DE62046FFF775FA23E62046FFF76DFA54
:1042E0004CE60398203343F8182C0130C3F8E8213A
:1042F000039056E67B6943F02B037B613B6943F0F7
:104300000B033B6166E60323E36040236361FDF733
:10431000F5FB354B354A03449342236804D8DA68E9
:1043200042F47052DA6080E6314A324902448A42ED
:1043300003D8DA6842F46052F4E7A0F574022E491B
:10434000A2F510528A4203D8DA6842F45052E9E7E3
:10435000A0F183722949A2F5E7428A4203D8DA68BC
:1043600042F44052DEE7264A264902448A4203D8F4
:10437000DA6842F43052D5E7234A244902448A429B
:1043800003D8DA6842F42052CCE7214A214902449A
:104390008A4203D8DA6842F41052C3E7A0F1B77238
:1043A0001D49A2F558528A4203D8DA6842F40052F5
:1043B000B8E71A4A1A4902448A42DA6894BF42F4BA
:1043C000E05242F4C052ADE7062B7FF461AE4FF0ED
:1043D0001C08082204F56F71304600F01BFC08FB36
:1043E0000948C7F30A174EE6405327FFFF340C0075
:1043F000401E1BFF3F420F007F4F12001FD61300CD
:1044000060B6E5FE5FE3160000D3CEFE3F771B00EB
:10441000C05BB3FEBF9121001F753800E05459FE08
:10442000DF9C410090F8B833012B10B5044609D049
:10443000012380F8B833006800F04CFC002084F8B9
:10444000B80310BD0220FCE770B54EB201F07F0545
:1044500004461C20002EB4BF00FB054100FB0141B7
:104460004FEAD670B4BF383101F5FC71002EB8BFE9
:10447000CD80022BCB7008BF00230D70487008BFA1
:104480000B7194F8B8338A60012B09D0012320689E
:1044900084F8B83300F035FA002084F8B80370BD12
:1044A0000220FCE738B501F07F051C2404FB050160
:1044B00004FB050401F5FC71C4F80C320023C4F8B8
:1044C0000422C4F8103284F8F93184F8F8510369F1
:1044D0000068012B08BFC4F80822DAB21DB900F049
:1044E0004BFA002038BD00F0C9FAFAE738B501F000
:1044F0007F051C2404FB050104FB05043831E3643B
:10450000002362642365012384F8385084F839302D
:1045100003690068012B08BFA264DAB21DB900F07C
:104520002BFA002038BD00F0A9FAFAE738B54BB2F3
:1045300001F07F051C220446002B4FEAD373B4BF61
:1045400002FB050102FB01014FF00102B4BF38314B
:1045500001F5FC718A700D704B7090F8B83393427E
:104560000FD080F8B823006800F064FB2DB904F583
:104570006F72217C206800F022FC002084F8B803D0
:1045800038BD0220FCE738B54BB205461C2201F0CD
:104590007F00002B4FF000044FEAD373B5BF02FB3E
:1045A000005102FB0151383101F5FC718C7008702B
:1045B0004B7095F8B833012B09D00123286885F892
:1045C000B83300F04EFB204685F8B84338BD0220D2
:1045D000FCE70368120470B5586A19B902439A627D
:1045E000002070BD9C6A00254E1E00EB1440ECB20A
:1045F0000135B44205DB3F31024303EB81035A60CE
:10460000EEE7403403EB8404646800EB1440EEE70B
:104610000368002059627047012102680346C0F810
:10462000F413002083F8EC03936943F00063936173
:10463000536D43F0805343F0030353657047704755
:104640000A4B013B0FD00269002AFADA0369074AD4
:1046500043F001030361013A05D0036913F001033C
:10466000F9D1184670470320704700BF410D030081
:1046700084B038B505AD044685E80E000A9B012BD1
:1046800027D1836B23F480338363C36823F48403CB
:1046900023F04003C360C36823F44013C360119B3D
:1046A000012B03D1C36843F48013C3602046FFF796
:1046B000C7FF089B012B07D1A36843F00603A36043
:1046C000A36843F02003A3600020BDE8384004B095
:1046D0007047C36843F04003C360FFF7B1FF4FF476
:1046E0008033A363E5E7836843F001038360002020
:1046F0007047836823F0010383600020704708B58A
:10470000C368012923F0C043C36008D1C36843F0E4
:104710000053C3603220FDF757F9002008BD00297F
:10472000F8D1C36843F08043F3E700008901074AEA
:1047300041F020010161013A05D0036913F0200323
:10474000F9D1184670470320704700BF410D0300A0
:104750001023064A0361013A05D0036913F01003E0
:10476000F9D1184670470320704700BF410D030080
:10477000D0F800381943C0F8001800207047000036
:1047800084B02DE9F041044607A8884680E80E0071
:10479000A36B119E43F400130C99DDE90927A36371
:1047A0005EB9A36B23F40013A363236843F04003B3
:1047B0002360236843F0800323600023012904F56C
:1047C0000065C4F8003ED4F80038C4F8003858D169
:1047D000002A54D100212046FFF7CAFF10212046AD
:1047E000FFF7A4FF2046FFF7B3FF00234FF0FF328F
:1047F0004FF090402B6119466B614FF0FF0CAA619E
:1048000004F51062EB6143453FD1002104F53062AD
:104810004FF0904C4FF0FF0E08468B4243D12B696E
:10482000012F23F480732B6108D1264B2B632B6B54
:1048300043F4803343F003032B632B6B0023A3610A
:104840006FF0804363611FB9A36943F01003A36154
:10485000A2691D4B1343A3610D9B1BB1A36943F0D8
:104860000803A361012E05D1A36943F0804343F0FF
:104870000403A3610020BDE8F04104B070470121AA
:10488000A9E70329A4D00321A5E7D2F800E0BEF1EF
:10489000000F06DA106011610133C2F808C020323F
:1048A000B1E71160F7E7D2F80080B8F1000F07DA3E
:1048B000C2F800C010610131C2F808E02032ACE754
:1048C0001060F7E70001800000383C8000F50062CE
:1048D000D0F8080810F0060012D0936803F0060321
:1048E000022B0CD0936803F00603062B07D09368C5
:1048F00003F00603042B14BF00200220704703209E
:10490000704770B54B7800F500650E780124012BD7
:10491000EB6904FA06F44FEA461218D1A4B200F586
:1049200010601C43EC6183581C040ED48B68C9785A
:10493000C3F30A03845843F0805343F4004343EA2B
:10494000814343EA865323438350002070BD43EAEA
:10495000044400F53060EC6183581B04F5D48B6887
:10496000C978C3F30A03845843F0805343F40043E7
:1049700043EA8143E7E700004B78DFF8D4C0012B1E
:104980002DE9F04191F800804E694FEA48152F4F0C
:104990003CD100F5106E0EEB05031C69B6B93C4026
:1049A0001C611C6944F400241C611C6904EA0C04A9
:1049B0001C61012A5EF8054044F004444EF80540AD
:1049C00018D10A695A610020BDE8F08104EA0C049C
:1049D0001C611C693C401C618C68B44238BF4C614E
:1049E0001C6944F400241C614C691E69C4F3120460
:1049F0003443DDE74B69002BE5D00123D0F83428A0
:104A000003FA08F31343C0F83438DCE700F53060EC
:104A100043191C6904EA0C041C611C693C401C61BC
:104A20008C6806B14C611E69C4F31204012A46F475
:104A300000261E611E6944EA06041C6101D1CA6891
:104A40005A61435943F004434351BCE7FFFF07E079
:104A50000000F8FF10B59DF808403CB9033300F59D
:104A600080509B1000EB0232A34201D1002010BD08
:104A700051F8240001341060F6E700002DE9F743F7
:104A800091F801E00C78BEF1010F4B694FEA441434
:104A9000CF78DFF87881DFF8789160D100F5106584
:104AA0002C442669002B32D106EA080626612669C5
:104AB00046F400262661266906EA0906012A2661CF
:104AC00004D10C780E6905EB44146661CF780E783A
:104AD000012F05EB46140AD1D0F8085815F4807F51
:104AE00025680CBF45F0005545F0805525602568C8
:104AF000012F45F00445256005D100929BB2324656
:104B0000C968FFF7A7FF002003B0BDE8F08306EAFD
:104B10000906D1F808C0012F2661266906EA0806B1
:104B200026610CEB0306D4F8108006F1FF36B6FBC5
:104B3000FCFC354E06EACC4646EA08062661C3F37D
:104B40001206D4F810C046EA0C06266150D1266938
:104B500026F0C0462661266946F00056AEE700F50D
:104B6000306CD1F808E00CEB0406356905EA09055C
:104B70003561356905EA0805356113BB3569CEF342
:104B800012032B433361336943F40023012A336159
:104B900001D1CB687361012F0CD1D0F8083813F420
:104BA000807F5CF804300CBF43F0005343F0805327
:104BB0004CF804305CF8043043F004434CF8043003
:104BC000A1E703EB0E05104BD6F81080013DB5FBB5
:104BD000FEF503EAC543ADB243EA080333610EFBB9
:104BE00005F3D6F81080C3F3120343EA0803CDE7B8
:104BF000012A3FF466AF0C78D0F834780EFA04F44A
:104C00003C43C0F8344861E70000F81FFFFF07E0AD
:104C10000000F8FF0332002300F58050921010B519
:104C2000934202D101EB830010BD046841F8234098
:104C30000133F5E74A780B78012A4FEA43130CBF9A
:104C400000F5106000F53060C258002A03DBC2583E
:104C500022F08042C250C25842F40012C2500020DA
:104C600070470B78CA7849785B01023A0129D2B2C1
:104C70000CBF00F5106000F53060012AC15821F426
:104C80000011C15003D8C25842F08052C2500020D7
:104C9000704738B500F52E61044600F51063FF2219
:104CA0009A602033C3F8E8218B42F9D100254FF0F8
:104CB000FF322046C4F81828C4F81058C4F8145815
:104CC000C4F81C58FFF744FD10212046FFF72EFDC5
:104CD000284638BDD0F80038090123F4FE6301F4FA
:104CE000FE61C0F80038D0F800381943C0F8001849
:104CF0000020704708B5D0F8043823F00203C0F84C
:104D000004380320FCF760FE002008BD08B5D0F889
:104D1000043843F00203C0F804380320FCF754FEC3
:104D2000002008BD4269806910407047D0F81838EB
:104D300000F50060C0691840000C7047D0F81838C2
:104D400000F50060C069184080B2704700F530631C
:104D500000F5006003EB41118A684069104070471C
:104D600010B5D0F81048D0F8343800EB4110CB40E3
:104D700000F51060DB018068DBB22343184010BDF2
:104D8000406900F001007047D0F8003923F4FF6358
:104D900023F00703C0F8003900F500639A6802F0B9
:104DA0000602042A05D1D0F8002942F00302C0F817
:104DB00000295A68002042F480725A60704710B58A
:104DC00000240129C0F8104BD0F8104B44F4002403
:104DD000C0F8104BD0F8104B44F01804C0F8104B3A
:104DE000D0F8104B44F0C044C0F8104B05D14FF040
:104DF0008023C0F8142BC0F8003B002010BDD0F871
:104E0000143201795B6810B5044698472046FEF7D6
:104E10005AFD002010BD08B5D0F814320BB902209D
:104E200008BD1B6898470028FAD0F8E708B5D0F805
:104E300014325B689847002008BD38B500F502754C
:104E40000446284600F034FA012394F80812C4F806
:104E5000F431B4F80E32C4F8F83101F01F03012B1D
:104E60000ED007D3022B10D001F080012046FEF7B0
:104E70003BFD03E02946204600F0D1F8002038BD74
:104E80002946204600F0A7F9F8E72946204600F019
:104E9000BAF9F3E738B50446154611BBD0F8F4313A
:104EA000032B0FD1D0F80C31D0F8102193420BD93D
:104EB0009B1A29469A42C0F80C3128BF1A4692B272
:104EC00000F04AFA002038BDD0F814321B6923B133
:104ED00090F8FC21032A00D19847204600F044FABC
:104EE000F0E7D0F814329B69002BEBD090F8FC214E
:104EF000032AE7D19847E5E738B504461546B1BB24
:104F0000D0F8F431022B09D1D0E9073293420ED9FF
:104F10009A1A2946C26192B200F007FA94F8003258
:104F2000012B02D1002384F80032002038BD8369B0
:104F3000B3FBF2F502FB15355DB99A4209D8D0F8FA
:104F4000F821934205D22A4600F0EFF9C4F8F8514F
:104F5000E4E7D4F81432DB682BB194F8FC21032A7F
:104F600001D120469847204600F009FAD6E7D0F84C
:104F700014325B69002BD8D090F8FC21032AD4D1DD
:104F80009847D2E7002238B5044640251146402311
:104F9000FEF7A0FC2B46C4F81051002280212046C9
:104FA000FEF798FC0123256284F8FC31D4F818320E
:104FB0002BB1D4F81432204621795B689847002041
:104FC00038BD01740020704790F8FC3180F8FD3145
:104FD000042380F8FC310020704790F8FD3180F800
:104FE000FC310020704700207047002070470020EF
:104FF00070470122017908B580F8FC21D0F814220D
:1050000052689047002008BD10B504468021FEF785
:105010006BFC00212046BDE81040FEF765BC37B5AB
:105020004B7804460D46092B40D8DFE803F0ADC9A4
:105030003FBD3F55053F9D7349880B0A013B062B39
:1050400034D8DFE803F0041C2A3333373E00D0F8AD
:1050500010321B680DF1060120469847BDF8062066
:10506000002A52D0EB88002B4FD09A42014628BF2D
:105070001A46ADF80620204600F04AF945E0027CC9
:10508000D0F814323AB99B6A0DF1060120469847D0
:1050900002234370E2E7DB6AF6E7D0F810320DF145
:1050A0000602C9B25B6898470028D7D12046FFF7AF
:1050B000ABFF2AE0037C002BF8D1D0F814325B6BF5
:1050C000C8E7037C002BF1D1D0F814320DF10601B2
:1050D0001B6B98470723DCE78B88002BE6D1CB8836
:1050E000002BE3D190F8FC31032BDFD08D7805F055
:1050F0007F0580F8FE512946FEF717FC204600F098
:1051000033F92DB1022384F8FC31002003B030BD07
:105110000123F8E789780129C8D890F8FC31022BDF
:105120000CD0032BC2D1B1B90223416080F8FC310D
:10513000FFF77CFE204600F017F9E6E70029F9D0DA
:1051400001210323416080F8FC312046FFF763FE14
:105150000228EFD1AAE741680129EBD0C9B2FFF7D5
:1051600065FE01216160F0E7CA88012A9ED190F8AE
:10517000FC31022B03D0032B98D1011D7BE70146A4
:10518000002341F8083F76E790F8FC31023B012B01
:105190008CD80023C360D0F804320BB10223C36063
:1051A000022204F10C0166E74B88012BADD1C4F853
:1051B00004322946D4F8143220469B689847B9E750
:1051C00090F8FC31023B012B3FF670AF4B88012B6E
:1051D0009BD10023EBE738B590F8FC3104460D462F
:1051E000032B0DD10B79082B0AD8D0F814329B6809
:1051F0009847EB8813B9204600F0B6F8002038BD78
:10520000FFF702FFFAE738B50D468B8804466A7847
:10521000D9B2012A1DD02AD3032A08D190F8FC3133
:10522000022B3ED0032B04D02046FFF7EDFE0020DA
:1052300038BD6B881BB94A0601D0FEF755FBD4F880
:105240001432294620469B689847204600F08CF887
:10525000EDE790F8FC31022B23D0032BE4D16B88CF
:10526000002BE4D14B06F0D0FEF745FBE7E790F8C2
:10527000FC21022A15D0032AD6D101F07F051B0696
:1052800000EB05154CBF143505F58275FEF73AFBAA
:1052900060B101232B6002222946204600F038F835
:1052A000C5E74A06C3D0FEF71FFBC0E72860F2E758
:1052B0000B7803704B784370CA788B7803EB02232A
:1052C00043804A790B7903EB02238380CA798B7977
:1052D00003EB0223C380704730B588B105462B1A13
:1052E00015F8014BDBB2002CF9D1013301385B001A
:1052F00013800B7003234B70022310F8015F05B974
:1053000030BD5A1CCD540233D2B2DBB28C54F4E718
:105310001346022210B5C0F8F4210A460021C0E964
:105320000633FEF709FB002010BD08B513460A46F8
:105330000021FEF701FB002008BD1346032210B533
:10534000C0F8F4210A46C0F808310021C0F80C3139
:10535000FEF7F9FA002010BD08B513460A460021F1
:10536000FEF7F1FA002008BD08B50423C0F8F431B7
:1053700000231A461946FEF7DFFA002008BD08B5DB
:105380000523C0F8F43100231A461946FEF7DBFA6C
:10539000002008BD809A45418E418F804545454992
:1053A00049498E8F9092924F994F555559999A9B92
:1053B0009C9D9E9F41494F55A5A5A6A7A8A9AAAB0C
:1053C000ACADAEAFB0B1B2B3B4B5B6B7B8B9BABBA5
:1053D000BCBDBEBFC0C1C2C3C4C5C6C7C8C9CACB95
:1053E000CCCDCECFD0D1D2D3D4D5D6D7D8D9DADB85
:1053F000DCDDDEDFE0E1E2E3E4E5E6E7E8E9EAEB75
:10540000ECEDEEEFF0F1F2F3F4F5F6F7F8F9FAFB64
:10541000FCFDFEFF01030507090E10121416181CEF
:105420001E46415400464154333200222A3A3C3E43
:105430003F7C7F002B2C3B3D5B5D000061001A032D
:10544000E0001703F8000703FF00010078010001E6
:10545000300132010601390110014A012E017901A2
:10546000060180014D004302810182018201840115
:10547000840186018701870189018A018B018B01E3
:105480008D018E018F019001910191019301940191
:10549000F60196019701980198013D029B019C013C
:1054A0009D0120029F01A001A001A201A201A4016F
:1054B000A401A601A701A701A901AA01AB01AC01A2
:1054C000AC01AE01AF01AF01B101B201B301B30153
:1054D000B501B501B701B801B801BA01BB01BC0102
:1054E000BC01BE01F701C001C101C201C301C40179
:1054F000C501C401C701C801C701CA01CB01CA0166
:10550000CD011001DD0101008E01DE011201F30168
:105510000300F101F401F401F80128012202120153
:105520003A020900652C3B023B023D02662C3F0219
:1055300040024102410246020A0153024000810139
:105540008601550289018A0158028F015A02900191
:105550005C025D025E025F029301610262029401DD
:105560006402650266026702970196016A02622C74
:105570006C026D026E029C01700271029D01730249
:1055800074029F0176027702780279027A027B0226
:105590007C02642C7E027F02A60181028202A901A4
:1055A0008402850286028702AE014402B101B20183
:1055B00045028D028E028F0290029102B7017B0399
:1055C0000300FD03FE03FF03AC030400860388030E
:1055D00089038A03B1031103C2030200A303A303D7
:1055E000C4030803CC0303008C038E038F03D8038A
:1055F0001801F2030A00F903F303F403F503F603B9
:10560000F703F703F903FA03FA0330042003500405
:105610001007600422018A043601C1040E01CF0480
:105620000100C004D00444016105260400007D1D72
:105630000100632C001E9601A01E5A01001F0806DF
:10564000101F0606201F0806301F0806401F06060A
:10565000511F0700591F521F5B1F541F5D1F561F0C
:105660005F1F601F0806701F0E00BA1FBB1FC81FF8
:10567000C91FCA1FCB1FDA1FDB1FF81FF91FEA1F44
:10568000EB1FFA1FFB1F801F0806901F0806A01FB4
:105690000806B01F0400B81FB91FB21FBC1FCC1FE3
:1056A0000100C31FD01F0206E01F0206E51F010014
:1056B000EC1FF31F0100FC1F4E210100322170215D
:1056C0001002842101008321D0241A05302C2F04DC
:1056D000602C0201672C0601752C0201802C6401EC
:1056E000002D260841FF1A030000C700FC00E90056
:1056F000E200E400E000E500E700EA00EB00E8007B
:10570000EF00EE00EC00C400C500C900E600C600D2
:10571000F400F600F200FB00F900FF00D600DC0008
:10572000A200A300A500A7209201E100ED00F30074
:10573000FA00F100D100AA00BA00BF001023AC00AB
:10574000BD00BC00A100AB00BB00912592259325B4
:1057500002252425612562255625552563255125D9
:1057600057255D255C255B251025142534252C2522
:105770001C2500253C255E255F255A2554256925D5
:105780006625602550256C256725682564256525D7
:1057900059255825522553256B256A2518250C2592
:1057A000882584258C2590258025B103DF0093036F
:1057B000C003A303C303B500C403A6039803A9034E
:1057C000B4031E22C603B50329226122B10065225B
:1057D000642220232123F7004822B0001922B700B9
:1057E0001A227F20B200A025A000000000000000C7
:1057F0006410B71DC8206E3BAC30D9269041DC76D2
:10580000F4516B6B5861B24D3C7105502083B8ED7B
:1058100044930FF0E8A3D6D68CB361CBB0C2649B9F
:10582000D4D2D38678E20AA01CF2BDBD10111200BA
:10583000080709060A050B040C030D020E010F00F0
:1058400001000200030004000500070009000D002C
:105850001100190021003100410061008100C100E8
:105860000101810101020103010401060108010C8B
:10587000011001180120013001400160000000000A
:1058800001010202030304040505060607070808D0
:1058900009090A0A0B0B0C0C0D0D0300040005008E
:1058A00006000700080009000A000B000D000F00A9
:1058B0001100130017001B001F0023002B003300F2
:1058C0003B0043005300630073008300A300C30048
:1058D000E3000201000000000000000000000101E0
:1058E0000101020202020303030304040404050588
:1058F0000505000004030904120100010000004036
:10590000830411DF00220102030153544D33324658
:1059100037323249454B00616C7068613A4F4E45F1
:105920002062792073797374656D617469636100B5
:10593000982F8A4291443771CFFBC0B5A5DBB5E9FA
:105940005BC25639F111F159A4823F92D55E1CAB6E
:1059500098AA07D8015B8312BE853124C37D0C55FC
:10596000745DBE72FEB1DE80A706DC9B74F19BC144
:10597000C1699BE48647BEEFC69DC10FCCA10C2434
:105980006F2CE92DAA84744ADCA9B05CDA88F97618
:1059900052513E986DC631A8C82703B0C77F59BF82
:1059A000F30BE0C64791A7D55163CA0667292914AE
:1059B000850AB72738211B2EFC6D2C4D130D38534B
:1059C00054730A65BB0A6A762EC9C281852C72920D
:1059D000A1E8BFA24B661AA8708B4BC2A3516CC73B
:1059E00019E892D1240699D685350EF470A06A1074
:1059F00016C1A419086C371E4C774827B5BCB034C3
:105A0000B30C1C394AAAD84E4FCA9C5BF36F2E6860
:105A1000EE828F746F63A5781478C8840802C78CEF
:105A2000FAFFBE90EB6C50A4F7A3F9BEF27871C6F2
:105A30004D6963726F507974686F6E005079626F50
:105A4000617264204446550040496E7465726E610F
:105A50006C20466C61736820202F307830383030ED
:105A6000303030302F30342A3031364B672C3031E3
:105A70002A3036344B672C30372A3132384B672F77
:105A8000307838303030303030302F36342A3132C0
:105A9000384B672F307839303030303030302F3657
:105AA000342A3132384B670043616E2774206F7699
:105AB00065727772697465206D626F6F74004164FE
:105AC0006472657373206F7574206F662072616EE7
:105AD0006765000085160008FB1600083D1E0008DB
